{
  "_format": "hh-sol-artifact-1",
  "contractName": "MultiPieceLazyMintNFT",
  "sourceName": "contracts/MultiPieceLazyMintNFT.sol",
  "abi": [
    {
      "inputs": [
        {
          "internalType": "address payable",
          "name": "_platformFeeReceiver",
          "type": "address"
        },
        {
          "internalType": "uint96",
          "name": "_platformFeeBps",
          "type": "uint96"
        }
      ],
      "stateMutability": "nonpayable",
      "type": "constructor"
    },
    {
      "anonymous": false,
      "inputs": [
        {
          "indexed": true,
          "internalType": "address",
          "name": "owner",
          "type": "address"
        },
        {
          "indexed": true,
          "internalType": "address",
          "name": "approved",
          "type": "address"
        },
        {
          "indexed": true,
          "internalType": "uint256",
          "name": "tokenId",
          "type": "uint256"
        }
      ],
      "name": "Approval",
      "type": "event"
    },
    {
      "anonymous": false,
      "inputs": [
        {
          "indexed": true,
          "internalType": "address",
          "name": "owner",
          "type": "address"
        },
        {
          "indexed": true,
          "internalType": "address",
          "name": "operator",
          "type": "address"
        },
        {
          "indexed": false,
          "internalType": "bool",
          "name": "approved",
          "type": "bool"
        }
      ],
      "name": "ApprovalForAll",
      "type": "event"
    },
    {
      "anonymous": false,
      "inputs": [
        {
          "indexed": false,
          "internalType": "uint256",
          "name": "_fromTokenId",
          "type": "uint256"
        },
        {
          "indexed": false,
          "internalType": "uint256",
          "name": "_toTokenId",
          "type": "uint256"
        }
      ],
      "name": "BatchMetadataUpdate",
      "type": "event"
    },
    {
      "anonymous": false,
      "inputs": [
        {
          "indexed": true,
          "internalType": "bytes32",
          "name": "listingId",
          "type": "bytes32"
        },
        {
          "indexed": true,
          "internalType": "address",
          "name": "creator",
          "type": "address"
        },
        {
          "indexed": true,
          "internalType": "address",
          "name": "buyer",
          "type": "address"
        },
        {
          "indexed": false,
          "internalType": "uint256",
          "name": "firstTokenId",
          "type": "uint256"
        },
        {
          "indexed": false,
          "internalType": "uint96",
          "name": "quantity",
          "type": "uint96"
        },
        {
          "indexed": false,
          "internalType": "string",
          "name": "uri",
          "type": "string"
        },
        {
          "indexed": false,
          "internalType": "uint96",
          "name": "pricePerPiece",
          "type": "uint96"
        }
      ],
      "name": "ListingMinted",
      "type": "event"
    },
    {
      "anonymous": false,
      "inputs": [
        {
          "indexed": false,
          "internalType": "uint256",
          "name": "_tokenId",
          "type": "uint256"
        }
      ],
      "name": "MetadataUpdate",
      "type": "event"
    },
    {
      "anonymous": false,
      "inputs": [
        {
          "indexed": true,
          "internalType": "address",
          "name": "previousOwner",
          "type": "address"
        },
        {
          "indexed": true,
          "internalType": "address",
          "name": "newOwner",
          "type": "address"
        }
      ],
      "name": "OwnershipTransferred",
      "type": "event"
    },
    {
      "anonymous": false,
      "inputs": [
        {
          "indexed": true,
          "internalType": "address",
          "name": "from",
          "type": "address"
        },
        {
          "indexed": true,
          "internalType": "address",
          "name": "to",
          "type": "address"
        },
        {
          "indexed": true,
          "internalType": "uint256",
          "name": "tokenId",
          "type": "uint256"
        }
      ],
      "name": "Transfer",
      "type": "event"
    },
    {
      "inputs": [
        {
          "internalType": "address",
          "name": "to",
          "type": "address"
        },
        {
          "internalType": "uint256",
          "name": "tokenId",
          "type": "uint256"
        }
      ],
      "name": "approve",
      "outputs": [],
      "stateMutability": "nonpayable",
      "type": "function"
    },
    {
      "inputs": [
        {
          "internalType": "address",
          "name": "owner",
          "type": "address"
        }
      ],
      "name": "balanceOf",
      "outputs": [
        {
          "internalType": "uint256",
          "name": "",
          "type": "uint256"
        }
      ],
      "stateMutability": "view",
      "type": "function"
    },
    {
      "inputs": [
        {
          "internalType": "uint256",
          "name": "tokenId",
          "type": "uint256"
        }
      ],
      "name": "getApproved",
      "outputs": [
        {
          "internalType": "address",
          "name": "",
          "type": "address"
        }
      ],
      "stateMutability": "view",
      "type": "function"
    },
    {
      "inputs": [
        {
          "internalType": "address",
          "name": "creator",
          "type": "address"
        },
        {
          "internalType": "string",
          "name": "uri",
          "type": "string"
        },
        {
          "internalType": "uint256",
          "name": "royaltyBps",
          "type": "uint256"
        },
        {
          "internalType": "uint256",
          "name": "pricePerPieceWei",
          "type": "uint256"
        },
        {
          "internalType": "uint256",
          "name": "maxSupply",
          "type": "uint256"
        }
      ],
      "name": "getListingId",
      "outputs": [
        {
          "internalType": "bytes32",
          "name": "",
          "type": "bytes32"
        }
      ],
      "stateMutability": "pure",
      "type": "function"
    },
    {
      "inputs": [
        {
          "internalType": "address",
          "name": "creator",
          "type": "address"
        },
        {
          "internalType": "string",
          "name": "uri",
          "type": "string"
        },
        {
          "internalType": "uint256",
          "name": "royaltyBps",
          "type": "uint256"
        },
        {
          "internalType": "uint256",
          "name": "pricePerPieceWei",
          "type": "uint256"
        },
        {
          "internalType": "uint256",
          "name": "maxSupply",
          "type": "uint256"
        }
      ],
      "name": "getListingMessageHash",
      "outputs": [
        {
          "internalType": "bytes32",
          "name": "",
          "type": "bytes32"
        }
      ],
      "stateMutability": "pure",
      "type": "function"
    },
    {
      "inputs": [
        {
          "internalType": "address",
          "name": "owner",
          "type": "address"
        },
        {
          "internalType": "address",
          "name": "operator",
          "type": "address"
        }
      ],
      "name": "isApprovedForAll",
      "outputs": [
        {
          "internalType": "bool",
          "name": "",
          "type": "bool"
        }
      ],
      "stateMutability": "view",
      "type": "function"
    },
    {
      "inputs": [
        {
          "internalType": "bytes32",
          "name": "",
          "type": "bytes32"
        }
      ],
      "name": "listings",
      "outputs": [
        {
          "internalType": "address",
          "name": "creator",
          "type": "address"
        },
        {
          "internalType": "uint96",
          "name": "royaltyBps",
          "type": "uint96"
        },
        {
          "internalType": "uint96",
          "name": "maxSupply",
          "type": "uint96"
        },
        {
          "internalType": "uint96",
          "name": "pricePerPiece",
          "type": "uint96"
        }
      ],
      "stateMutability": "view",
      "type": "function"
    },
    {
      "inputs": [
        {
          "internalType": "bytes32",
          "name": "",
          "type": "bytes32"
        }
      ],
      "name": "mintedSupply",
      "outputs": [
        {
          "internalType": "uint96",
          "name": "",
          "type": "uint96"
        }
      ],
      "stateMutability": "view",
      "type": "function"
    },
    {
      "inputs": [],
      "name": "name",
      "outputs": [
        {
          "internalType": "string",
          "name": "",
          "type": "string"
        }
      ],
      "stateMutability": "view",
      "type": "function"
    },
    {
      "inputs": [],
      "name": "owner",
      "outputs": [
        {
          "internalType": "address",
          "name": "",
          "type": "address"
        }
      ],
      "stateMutability": "view",
      "type": "function"
    },
    {
      "inputs": [
        {
          "internalType": "uint256",
          "name": "tokenId",
          "type": "uint256"
        }
      ],
      "name": "ownerOf",
      "outputs": [
        {
          "internalType": "address",
          "name": "",
          "type": "address"
        }
      ],
      "stateMutability": "view",
      "type": "function"
    },
    {
      "inputs": [],
      "name": "platformFeeBps",
      "outputs": [
        {
          "internalType": "uint96",
          "name": "",
          "type": "uint96"
        }
      ],
      "stateMutability": "view",
      "type": "function"
    },
    {
      "inputs": [],
      "name": "platformFeeReceiver",
      "outputs": [
        {
          "internalType": "address payable",
          "name": "",
          "type": "address"
        }
      ],
      "stateMutability": "view",
      "type": "function"
    },
    {
      "inputs": [
        {
          "internalType": "address",
          "name": "creator",
          "type": "address"
        },
        {
          "internalType": "string",
          "name": "uri",
          "type": "string"
        },
        {
          "internalType": "uint256",
          "name": "royaltyBps",
          "type": "uint256"
        },
        {
          "internalType": "uint256",
          "name": "pricePerPieceWei",
          "type": "uint256"
        },
        {
          "internalType": "uint256",
          "name": "maxSupply",
          "type": "uint256"
        },
        {
          "internalType": "uint96",
          "name": "quantity",
          "type": "uint96"
        },
        {
          "internalType": "bytes",
          "name": "signature",
          "type": "bytes"
        }
      ],
      "name": "redeemListing",
      "outputs": [
        {
          "internalType": "uint256",
          "name": "firstTokenId",
          "type": "uint256"
        }
      ],
      "stateMutability": "payable",
      "type": "function"
    },
    {
      "inputs": [],
      "name": "renounceOwnership",
      "outputs": [],
      "stateMutability": "nonpayable",
      "type": "function"
    },
    {
      "inputs": [
        {
          "internalType": "address",
          "name": "from",
          "type": "address"
        },
        {
          "internalType": "address",
          "name": "to",
          "type": "address"
        },
        {
          "internalType": "uint256",
          "name": "tokenId",
          "type": "uint256"
        }
      ],
      "name": "safeTransferFrom",
      "outputs": [],
      "stateMutability": "nonpayable",
      "type": "function"
    },
    {
      "inputs": [
        {
          "internalType": "address",
          "name": "from",
          "type": "address"
        },
        {
          "internalType": "address",
          "name": "to",
          "type": "address"
        },
        {
          "internalType": "uint256",
          "name": "tokenId",
          "type": "uint256"
        },
        {
          "internalType": "bytes",
          "name": "data",
          "type": "bytes"
        }
      ],
      "name": "safeTransferFrom",
      "outputs": [],
      "stateMutability": "nonpayable",
      "type": "function"
    },
    {
      "inputs": [
        {
          "internalType": "address",
          "name": "operator",
          "type": "address"
        },
        {
          "internalType": "bool",
          "name": "approved",
          "type": "bool"
        }
      ],
      "name": "setApprovalForAll",
      "outputs": [],
      "stateMutability": "nonpayable",
      "type": "function"
    },
    {
      "inputs": [
        {
          "internalType": "address payable",
          "name": "receiver",
          "type": "address"
        },
        {
          "internalType": "uint96",
          "name": "feeBps",
          "type": "uint96"
        }
      ],
      "name": "setPlatformFee",
      "outputs": [],
      "stateMutability": "nonpayable",
      "type": "function"
    },
    {
      "inputs": [
        {
          "internalType": "bytes4",
          "name": "interfaceId",
          "type": "bytes4"
        }
      ],
      "name": "supportsInterface",
      "outputs": [
        {
          "internalType": "bool",
          "name": "",
          "type": "bool"
        }
      ],
      "stateMutability": "view",
      "type": "function"
    },
    {
      "inputs": [],
      "name": "symbol",
      "outputs": [
        {
          "internalType": "string",
          "name": "",
          "type": "string"
        }
      ],
      "stateMutability": "view",
      "type": "function"
    },
    {
      "inputs": [
        {
          "internalType": "uint256",
          "name": "tokenId",
          "type": "uint256"
        }
      ],
      "name": "tokenURI",
      "outputs": [
        {
          "internalType": "string",
          "name": "",
          "type": "string"
        }
      ],
      "stateMutability": "view",
      "type": "function"
    },
    {
      "inputs": [
        {
          "internalType": "address",
          "name": "from",
          "type": "address"
        },
        {
          "internalType": "address",
          "name": "to",
          "type": "address"
        },
        {
          "internalType": "uint256",
          "name": "tokenId",
          "type": "uint256"
        }
      ],
      "name": "transferFrom",
      "outputs": [],
      "stateMutability": "nonpayable",
      "type": "function"
    },
    {
      "inputs": [
        {
          "internalType": "address",
          "name": "newOwner",
          "type": "address"
        }
      ],
      "name": "transferOwnership",
      "outputs": [],
      "stateMutability": "nonpayable",
      "type": "function"
    }
  ],
  "bytecode": "0x608034620003c3576001600160401b0390601f19601f620021ad3881900382810184168501919086831186841017620003af578086926040948552833981010312620003c35782516001600160a01b03948582169491859003620003c357602091820151926001600160601b0384168403620003c3576200007f620003c7565b92601384527f447572636865784d756c74694c617a794e46540000000000000000000000000081850152620000b3620003c7565b90600682526504455522d4d560d41b81830152845196848811620003af575f978854966001978881811c91168015620003a4575b8582101462000390579081878493116200033d575b508490878311600114620002dd578b92620002d1575b50505f19600383901b1c191690871b1788555b8251948511620002bd5785548681811c91168015620002b2575b838210146200029e5790818587969594931162000245575b5081938511600114620001e15750508692620001d5575b50505f19600383901b1c191690821b1790555b60075460018060a01b03199233848316176007557f8be0079c531659141344cd1fd0a4f28419497f9722a3daafe3b4186f6b6457e0604051963393169180a360a01b1617600b55611dc59081620003e88239f35b015190505f806200016e565b869593929193168589528389209389905b8282106200022b575050841162000212575b505050811b01905562000181565b01515f1960f88460031b161c191690555f808062000204565b8484015186558897909501949384019390810190620001f2565b9091929394508689528289208580880160051c82019285891062000294575b9188978a9297969594930160051c01915b8281106200028557505062000157565b8b815588975089910162000275565b9250819262000264565b634e487b7160e01b89526022600452602489fd5b90607f16906200013f565b634e487b7160e01b88526041600452602488fd5b015190505f8062000112565b90848a9416918c8052868d20928d5b888282106200032657505084116200030d575b505050811b01885562000125565b01515f1960f88460031b161c191690555f8080620002ff565b8385015186558d97909501949384019301620002ec565b9091508a8052848b208780850160051c82019287861062000386575b918b91869594930160051c01915b82811062000377575050620000fc565b8d81558594508b910162000367565b9250819262000359565b634e487b7160e01b8b52602260045260248bfd5b90607f1690620000e7565b634e487b7160e01b5f52604160045260245ffd5b5f80fd5b60408051919082016001600160401b03811183821017620003af5760405256fe6080806040526004361015610012575f80fd5b5f3560e01c90816301ffc9a71461133d5750806306fdde031461129d578063081812fc1461127f578063095ea7b31461110b57806322dcd13e146110eb57806323b872dd146110c257806329aec398146110a65780632d656ad71461107e57806342842e0e146110575780636352211e1461102757806370a0823114610f92578063715018a614610f375780637fe5d7b714610ea557806382659b77146106145780638da5cb5b146105ec57806393d7e122146105b957806395d89b41146104dd578063a22cb4651461040f578063b88d4fde146103be578063c18b8db414610363578063c87b56dd14610261578063e985e9c51461020f578063f2fde38b1461014c5763ffe8272514610124575f80fd5b3461014857602061014061013736611509565b939290926115b6565b604051908152f35b5f80fd5b3461014857602036600319011261014857610165611408565b61016d61165b565b6001600160a01b039081169081156101bb57600754826001600160601b0360a01b821617600755167f8be0079c531659141344cd1fd0a4f28419497f9722a3daafe3b4186f6b6457e05f80a3005b60405162461bcd60e51b815260206004820152602660248201527f4f776e61626c653a206e6577206f776e657220697320746865207a65726f206160448201526564647265737360d01b6064820152608490fd5b3461014857604036600319011261014857610228611408565b61023061141e565b9060018060a01b038091165f52600560205260405f2091165f52602052602060ff60405f2054166040519015158152f35b3461014857602080600319360112610148576004355f81815260026020526040902054610298906001600160a01b031615156118c5565b5f526006815260405f209060405191825f82546102b4816116b3565b938484526001918683821691825f14610341575050600114610305575b50506102df92500383611485565b5f6040516102ec81611469565b526103016040519282849384528301906113e3565b0390f35b8592505f52815f20905f915b8583106103295750506102df935082010185806102d1565b80548389018501528794508693909201918101610311565b92509350506102df94915060ff191682840152151560051b82010185806102d1565b34610148576020366003190112610148576004355f526009602052608060405f20600181549101546040519160018060a01b038116835260a01c60208301526001600160601b0390818116604084015260601c166060820152f35b34610148576080366003190112610148576103d7611408565b6103df61141e565b6064359167ffffffffffffffff83116101485761040361040d9336906004016114c3565b91604435916119d4565b005b3461014857604036600319011261014857610428611408565b60243590811515809203610148576001600160a01b03169033821461049857335f52600560205260405f20825f5260205260405f2060ff1981541660ff83161790556040519081527f17307eab39ab6107e8899845ad3d59bd9653f200f220920489ca2b5937696c3160203392a3005b60405162461bcd60e51b815260206004820152601960248201527f4552433732313a20617070726f766520746f2063616c6c6572000000000000006044820152606490fd5b34610148575f366003190112610148576040515f60018054906104ff826116b3565b80855291818116908115610592575060011461053a575b6103018461052681860382611485565b6040519182916020835260208301906113e3565b5f81815292507fb10e2d527612073b26eecdfd717e6a320cf44b4afac2b0732d9fcbe2b7fa0cf65b82841061057a57505050810160200161052682610516565b80546020858701810191909152909301928101610562565b60ff191660208087019190915292151560051b850190920192506105269150839050610516565b34610148576020366003190112610148576004355f52600860205260206001600160601b0360405f205416604051908152f35b34610148575f366003190112610148576007546040516001600160a01b039091168152602090f35b60e036600319011261014857610628611408565b60243567ffffffffffffffff8111610148576106489036906004016114c3565b6001600160601b0360a4351660a435036101485760c43567ffffffffffffffff81116101485761067c9036906004016114c3565b60016001600160601b0360a4351610610e685761138860443511610e30576106e36106eb916106b460843560643560443587896115b6565b7f19457468657265756d205369676e6564204d6573736167653a0a3332000000005f52601c52603c5f20611803565b9190916116eb565b6001600160a01b03838116911603610deb576107106084356064356044358486611558565b91825f5260086020526001600160601b0360405f205416916084356001600160601b0361073f60a435866115f1565b1611610dbb5761075c6001600160601b0360a4351660643561160c565b803410610d81578315610ccc575b600a54935f5b6001600160601b0360a435166001600160601b038216106109b657506107999060a435906115f1565b855f5260086020526001600160601b0360405f2091166001600160601b0319825416179055600b546127106107d18260a01c8461160c565b046107dc818461161f565b91811515806109a4575b610937575b5050806108d1575b50803411610877575b506020937fdfee89606fdd772ef3501b2fb027e0e731f7c1df29654bca21d73a1649f444fb61084c604051938685526001600160601b0360a43516888601526080604086015260808501906113e3565b6064356001600160601b0316606085015233946001600160a01b0316939081900390a4604051908152f35b5f808061088581943461161f565b335af161089061162c565b501561089c57846107fc565b60405162461bcd60e51b815260206004820152600d60248201526c1499599d5b990819985a5b1959609a1b6044820152606490fd5b5f908190819081906001600160a01b0388165af16108ed61162c565b50156108f957856107f3565b60405162461bcd60e51b815260206004820152601660248201527510dc99585d1bdc881c185e5b595b9d0819985a5b195960521b6044820152606490fd5b5f918291829182916001600160a01b03165af161095261162c565b501561095f5786806107eb565b60405162461bcd60e51b815260206004820152601c60248201527f506c6174666f726d20666565207472616e73666572206661696c6564000000006044820152606490fd5b506001600160a01b03811615156107e6565b600a545f198114610b305760018101600a553315610c88575f818152600260205260409020546109f2906001600160a01b031615155b15611ad9565b5f81815260026020526040902054610a14906001600160a01b031615156109ec565b335f52600360205260405f2060018154019055805f52600260205260405f20336001600160601b0360a01b82541617905580335f7fddf252ad1be2c89b69c2b068fc378daa952ba7f163c4a11628f55a4df523b3ef8180a45f818152600260205260409020546001600160a01b031615610c2c57805f52600660205260405f20855167ffffffffffffffff8111610c1857610aaf82546116b3565b601f8111610bd7575b506020601f8211600114610b4f5791817ff8e1a15aba9398e019f0b49df1a4fde98ee17ae345cb5f6b5e2c27f5033e8ce794926020945f91610b44575b508160011b915f199060031b1c19161790555b604051908152a16001600160601b0380821614610b30576001600160601b0316600101610770565b634e487b7160e01b5f52601160045260245ffd5b90508901518d610af5565b825f5260205f20905f5b601f1984168110610bbf575082602094926001927ff8e1a15aba9398e019f0b49df1a4fde98ee17ae345cb5f6b5e2c27f5033e8ce79795601f19811610610ba7575b5050811b019055610b08565b8b01515f1960f88460031b161c191690558d80610b9b565b9091602060018192858d015181550193019101610b59565b825f5260205f20601f830160051c810160208410610c11575b601f830160051c82018110610c06575050610ab8565b5f8155600101610bf0565b5080610bf0565b634e487b7160e01b5f52604160045260245ffd5b60405162461bcd60e51b815260206004820152602e60248201527f45524337323155524953746f726167653a2055524920736574206f66206e6f6e60448201526d32bc34b9ba32b73a103a37b5b2b760911b6064820152608490fd5b606460405162461bcd60e51b815260206004820152602060248201527f4552433732313a206d696e7420746f20746865207a65726f20616464726573736044820152fd5b60405180608081011067ffffffffffffffff608083011117610c18576080810160405260018060a01b0384168152602081016001600160601b036044351681526001600160601b0360016040840193826084351685526060810193836064351685528a5f52600960205260405f2091838060a01b03905116908460a01b905160a01b16178155019251168254916001600160601b0360601b905160601b169167ffffffffffffffff60c01b161717905561076a565b60405162461bcd60e51b8152602060048201526012602482015271496e73756666696369656e742076616c756560701b6044820152606490fd5b60405162461bcd60e51b815260206004820152600860248201526714dbdb19081bdd5d60c21b6044820152606490fd5b60405162461bcd60e51b815260206004820152601960248201527f496e76616c6964206c697374696e67207369676e6174757265000000000000006044820152606490fd5b60405162461bcd60e51b815260206004820152601060248201526f0a4def2c2d8e8f240e8dede40d0d2ced60831b6044820152606490fd5b60405162461bcd60e51b81526020600482015260156024820152745175616e74697479206d757374206265203e3d203160581b6044820152606490fd5b34610148576040366003190112610148576004356001600160a01b03811690819003610148576024356001600160601b038116808203610148576103e890610eeb61165b565b11610f035760a01b6001600160a01b03191617600b55005b60405162461bcd60e51b815260206004820152600c60248201526b08ccaca40e8dede40d0d2ced60a31b6044820152606490fd5b34610148575f36600319011261014857610f4f61165b565b600780546001600160a01b031981169091555f906001600160a01b03167f8be0079c531659141344cd1fd0a4f28419497f9722a3daafe3b4186f6b6457e08280a3005b34610148576020366003190112610148576001600160a01b03610fb3611408565b168015610fd0575f526003602052602060405f2054604051908152f35b60405162461bcd60e51b815260206004820152602960248201527f4552433732313a2061646472657373207a65726f206973206e6f7420612076616044820152683634b21037bbb732b960b91b6064820152608490fd5b34610148576020366003190112610148576020611045600435611911565b6040516001600160a01b039091168152f35b346101485761040d61106836611434565b906040519261107684611469565b5f84526119d4565b34610148575f36600319011261014857600b546040516001600160a01b039091168152602090f35b346101485760206101406110b936611509565b93929092611558565b346101485761040d6110d336611434565b916110e66110e18433611a6f565b611972565b611b7f565b34610148575f366003190112610148576020600b5460a01c604051908152f35b3461014857604036600319011261014857611124611408565b602435906001600160a01b03808061113b85611911565b169216918083146112305780331490811561120f575b50156111a4575f83815260046020526040902080546001600160a01b0319168317905561117d83611911565b167f8c5be1e5ebec7d5bd14f71427d1e84f3dd0314c0f7b2291e5b200ac8c7c3b9255f80a4005b60405162461bcd60e51b815260206004820152603d60248201527f4552433732313a20617070726f76652063616c6c6572206973206e6f7420746f60448201527f6b656e206f776e6572206f7220617070726f76656420666f7220616c6c0000006064820152608490fd5b90505f52600560205260405f20335f5260205260ff60405f20541684611151565b60405162461bcd60e51b815260206004820152602160248201527f4552433732313a20617070726f76616c20746f2063757272656e74206f776e656044820152603960f91b6064820152608490fd5b34610148576020366003190112610148576020611045600435611936565b34610148575f366003190112610148576040515f80546112bc816116b3565b8084529060019081811690811561059257506001146112e5576103018461052681860382611485565b5f80805292507f290decd9548b62a8d60345a988386fc84ba6bc95484008f6362f93160ef3e5635b82841061132557505050810160200161052682610516565b8054602085870181019190915290930192810161130d565b34610148576020366003190112610148576004359063ffffffff60e01b821680920361014857602091632483248360e11b811490811561137f575b5015158152f35b6380ac58cd60e01b8114915081156113b1575b81156113a0575b5083611378565b6301ffc9a760e01b14905083611399565b635b5e139f60e01b81149150611392565b5f5b8381106113d35750505f910152565b81810151838201526020016113c4565b906020916113fc815180928185528580860191016113c2565b601f01601f1916010190565b600435906001600160a01b038216820361014857565b602435906001600160a01b038216820361014857565b6060906003190112610148576001600160a01b0390600435828116810361014857916024359081168103610148579060443590565b6020810190811067ffffffffffffffff821117610c1857604052565b90601f8019910116810190811067ffffffffffffffff821117610c1857604052565b67ffffffffffffffff8111610c1857601f01601f191660200190565b81601f82011215610148578035906114da826114a7565b926114e86040519485611485565b8284526020838301011161014857815f926020809301838601378301015290565b9060a0600319830112610148576004356001600160a01b038116810361014857916024359067ffffffffffffffff821161014857611549916004016114c3565b90604435906064359060843590565b93906115b09260949260405195869360208501986001600160601b03199060601b1689526115908151809260206034890191016113c2565b840192603484015260548301526074820152036074810184520182611485565b51902090565b906115c394939291611558565b60405160208101918252602081526040810181811067ffffffffffffffff821117610c185760405251902090565b9190916001600160601b0380809416911601918211610b3057565b81810292918115918404141715610b3057565b91908203918211610b3057565b3d15611656573d9061163d826114a7565b9161164b6040519384611485565b82523d5f602084013e565b606090565b6007546001600160a01b0316330361166f57565b606460405162461bcd60e51b815260206004820152602060248201527f4f776e61626c653a2063616c6c6572206973206e6f7420746865206f776e65726044820152fd5b90600182811c921680156116e1575b60208310146116cd57565b634e487b7160e01b5f52602260045260245ffd5b91607f16916116c2565b60058110156117ef57806116fc5750565b600181036117495760405162461bcd60e51b815260206004820152601860248201527f45434453413a20696e76616c6964207369676e617475726500000000000000006044820152606490fd5b600281036117965760405162461bcd60e51b815260206004820152601f60248201527f45434453413a20696e76616c6964207369676e6174757265206c656e677468006044820152606490fd5b60031461179f57565b60405162461bcd60e51b815260206004820152602260248201527f45434453413a20696e76616c6964207369676e6174757265202773272076616c604482015261756560f01b6064820152608490fd5b634e487b7160e01b5f52602160045260245ffd5b9060418151145f1461182f5761182b91602082015190606060408401519301515f1a90611838565b9091565b50505f90600290565b9291907f7fffffffffffffffffffffffffffffff5d576e7357a4501ddfe92f46681b20a083116118ba5791608094939160ff6020946040519485521684840152604083015260608201525f93849182805260015afa156118ad5781516001600160a01b038116156118a7579190565b50600190565b50604051903d90823e3d90fd5b505050505f90600390565b156118cc57565b60405162461bcd60e51b815260206004820152601860248201527f4552433732313a20696e76616c696420746f6b656e20494400000000000000006044820152606490fd5b5f908152600260205260409020546001600160a01b03166119338115156118c5565b90565b5f81815260026020526040902054611958906001600160a01b031615156118c5565b5f908152600460205260409020546001600160a01b031690565b1561197957565b60405162461bcd60e51b815260206004820152602d60248201527f4552433732313a2063616c6c6572206973206e6f7420746f6b656e206f776e6560448201526c1c881bdc88185c1c1c9bdd9959609a1b6064820152608490fd5b906119f89392916119e86110e18433611a6f565b6119f3838383611b7f565b611c8e565b156119ff57565b60405162461bcd60e51b815280611a1860048201611a1c565b0390fd5b60809060208152603260208201527f4552433732313a207472616e7366657220746f206e6f6e20455243373231526560408201527131b2b4bb32b91034b6b83632b6b2b73a32b960711b60608201520190565b906001600160a01b038080611a8384611911565b16931691838314938415611ab6575b508315611aa0575b50505090565b611aac91929350611936565b16145f8080611a9a565b9093505f52600560205260405f20825f5260205260ff60405f205416925f611a92565b15611ae057565b60405162461bcd60e51b815260206004820152601c60248201527f4552433732313a20746f6b656e20616c7265616479206d696e746564000000006044820152606490fd5b15611b2c57565b60405162461bcd60e51b815260206004820152602560248201527f4552433732313a207472616e736665722066726f6d20696e636f72726563742060448201526437bbb732b960d91b6064820152608490fd5b90611ba791611b8d84611911565b6001600160a01b0393918416928492909183168414611b25565b16918215611c3d5781611bc491611bbd86611911565b1614611b25565b7fddf252ad1be2c89b69c2b068fc378daa952ba7f163c4a11628f55a4df523b3ef5f8481526004602052604081206001600160601b0360a01b908181541690558382526003602052604082205f1981540190558482526040822060018154019055858252600260205284604083209182541617905580a4565b60405162461bcd60e51b8152602060048201526024808201527f4552433732313a207472616e7366657220746f20746865207a65726f206164646044820152637265737360e01b6064820152608490fd5b919290803b15611d8657604051630a85bd0160e11b8082523360048301526001600160a01b03948516602483015260448201959095526080606482015291602091839182908190611ce39060848301906113e3565b03915f968791165af190829082611d37575b5050611d2957611d0361162c565b80519081611d245760405162461bcd60e51b815280611a1860048201611a1c565b602001fd5b6001600160e01b0319161490565b909192506020813d8211611d7e575b81611d5360209383611485565b81010312611d7a5751906001600160e01b031982168203611d775750905f80611cf5565b80fd5b5080fd5b3d9150611d46565b5050505060019056fea2646970667358221220ed8c5d4b350f2aba54972e7cfb98d71588ad3247f9947bbf5c11679a8928568c64736f6c63430008140033",
  "linkReferences": {},
  "deployedLinkReferences": {}
}