{
  "_format": "hh-sol-artifact-1",
  "contractName": "MultiPieceLazyMintNFT",
  "sourceName": "contracts/MultiPieceLazyMintNFT.sol",
  "abi": [
    {
      "inputs": [
        {
          "internalType": "address payable",
          "name": "_platformFeeReceiver",
          "type": "address"
        },
        {
          "internalType": "uint96",
          "name": "_platformFeeBps",
          "type": "uint96"
        }
      ],
      "stateMutability": "nonpayable",
      "type": "constructor"
    },
    {
      "anonymous": false,
      "inputs": [
        {
          "indexed": true,
          "internalType": "address",
          "name": "owner",
          "type": "address"
        },
        {
          "indexed": true,
          "internalType": "address",
          "name": "approved",
          "type": "address"
        },
        {
          "indexed": true,
          "internalType": "uint256",
          "name": "tokenId",
          "type": "uint256"
        }
      ],
      "name": "Approval",
      "type": "event"
    },
    {
      "anonymous": false,
      "inputs": [
        {
          "indexed": true,
          "internalType": "address",
          "name": "owner",
          "type": "address"
        },
        {
          "indexed": true,
          "internalType": "address",
          "name": "operator",
          "type": "address"
        },
        {
          "indexed": false,
          "internalType": "bool",
          "name": "approved",
          "type": "bool"
        }
      ],
      "name": "ApprovalForAll",
      "type": "event"
    },
    {
      "anonymous": false,
      "inputs": [
        {
          "indexed": false,
          "internalType": "uint256",
          "name": "_fromTokenId",
          "type": "uint256"
        },
        {
          "indexed": false,
          "internalType": "uint256",
          "name": "_toTokenId",
          "type": "uint256"
        }
      ],
      "name": "BatchMetadataUpdate",
      "type": "event"
    },
    {
      "anonymous": false,
      "inputs": [
        {
          "indexed": true,
          "internalType": "bytes32",
          "name": "listingId",
          "type": "bytes32"
        },
        {
          "indexed": true,
          "internalType": "address",
          "name": "creator",
          "type": "address"
        },
        {
          "indexed": true,
          "internalType": "address",
          "name": "buyer",
          "type": "address"
        },
        {
          "indexed": false,
          "internalType": "uint256",
          "name": "firstTokenId",
          "type": "uint256"
        },
        {
          "indexed": false,
          "internalType": "uint96",
          "name": "quantity",
          "type": "uint96"
        },
        {
          "indexed": false,
          "internalType": "string",
          "name": "uri",
          "type": "string"
        },
        {
          "indexed": false,
          "internalType": "uint96",
          "name": "pricePerPiece",
          "type": "uint96"
        }
      ],
      "name": "ListingMinted",
      "type": "event"
    },
    {
      "anonymous": false,
      "inputs": [
        {
          "indexed": false,
          "internalType": "uint256",
          "name": "_tokenId",
          "type": "uint256"
        }
      ],
      "name": "MetadataUpdate",
      "type": "event"
    },
    {
      "anonymous": false,
      "inputs": [
        {
          "indexed": true,
          "internalType": "address",
          "name": "previousOwner",
          "type": "address"
        },
        {
          "indexed": true,
          "internalType": "address",
          "name": "newOwner",
          "type": "address"
        }
      ],
      "name": "OwnershipTransferred",
      "type": "event"
    },
    {
      "anonymous": false,
      "inputs": [
        {
          "indexed": true,
          "internalType": "address",
          "name": "from",
          "type": "address"
        },
        {
          "indexed": true,
          "internalType": "address",
          "name": "to",
          "type": "address"
        },
        {
          "indexed": true,
          "internalType": "uint256",
          "name": "tokenId",
          "type": "uint256"
        }
      ],
      "name": "Transfer",
      "type": "event"
    },
    {
      "inputs": [
        {
          "internalType": "address",
          "name": "to",
          "type": "address"
        },
        {
          "internalType": "uint256",
          "name": "tokenId",
          "type": "uint256"
        }
      ],
      "name": "approve",
      "outputs": [],
      "stateMutability": "nonpayable",
      "type": "function"
    },
    {
      "inputs": [
        {
          "internalType": "address",
          "name": "owner",
          "type": "address"
        }
      ],
      "name": "balanceOf",
      "outputs": [
        {
          "internalType": "uint256",
          "name": "",
          "type": "uint256"
        }
      ],
      "stateMutability": "view",
      "type": "function"
    },
    {
      "inputs": [
        {
          "internalType": "uint256",
          "name": "tokenId",
          "type": "uint256"
        }
      ],
      "name": "getApproved",
      "outputs": [
        {
          "internalType": "address",
          "name": "",
          "type": "address"
        }
      ],
      "stateMutability": "view",
      "type": "function"
    },
    {
      "inputs": [
        {
          "internalType": "address",
          "name": "creator",
          "type": "address"
        },
        {
          "internalType": "string",
          "name": "uri",
          "type": "string"
        },
        {
          "internalType": "uint256",
          "name": "royaltyBps",
          "type": "uint256"
        },
        {
          "internalType": "uint256",
          "name": "pricePerPieceWei",
          "type": "uint256"
        },
        {
          "internalType": "uint256",
          "name": "maxSupply",
          "type": "uint256"
        }
      ],
      "name": "getListingId",
      "outputs": [
        {
          "internalType": "bytes32",
          "name": "",
          "type": "bytes32"
        }
      ],
      "stateMutability": "pure",
      "type": "function"
    },
    {
      "inputs": [
        {
          "internalType": "address",
          "name": "creator",
          "type": "address"
        },
        {
          "internalType": "string",
          "name": "uri",
          "type": "string"
        },
        {
          "internalType": "uint256",
          "name": "royaltyBps",
          "type": "uint256"
        },
        {
          "internalType": "uint256",
          "name": "pricePerPieceWei",
          "type": "uint256"
        },
        {
          "internalType": "uint256",
          "name": "maxSupply",
          "type": "uint256"
        }
      ],
      "name": "getListingMessageHash",
      "outputs": [
        {
          "internalType": "bytes32",
          "name": "",
          "type": "bytes32"
        }
      ],
      "stateMutability": "pure",
      "type": "function"
    },
    {
      "inputs": [
        {
          "internalType": "address",
          "name": "owner",
          "type": "address"
        },
        {
          "internalType": "address",
          "name": "operator",
          "type": "address"
        }
      ],
      "name": "isApprovedForAll",
      "outputs": [
        {
          "internalType": "bool",
          "name": "",
          "type": "bool"
        }
      ],
      "stateMutability": "view",
      "type": "function"
    },
    {
      "inputs": [
        {
          "internalType": "bytes32",
          "name": "",
          "type": "bytes32"
        }
      ],
      "name": "listings",
      "outputs": [
        {
          "internalType": "address",
          "name": "creator",
          "type": "address"
        },
        {
          "internalType": "uint96",
          "name": "royaltyBps",
          "type": "uint96"
        },
        {
          "internalType": "uint96",
          "name": "maxSupply",
          "type": "uint96"
        },
        {
          "internalType": "uint96",
          "name": "pricePerPiece",
          "type": "uint96"
        }
      ],
      "stateMutability": "view",
      "type": "function"
    },
    {
      "inputs": [
        {
          "internalType": "bytes32",
          "name": "",
          "type": "bytes32"
        }
      ],
      "name": "mintedSupply",
      "outputs": [
        {
          "internalType": "uint96",
          "name": "",
          "type": "uint96"
        }
      ],
      "stateMutability": "view",
      "type": "function"
    },
    {
      "inputs": [],
      "name": "name",
      "outputs": [
        {
          "internalType": "string",
          "name": "",
          "type": "string"
        }
      ],
      "stateMutability": "view",
      "type": "function"
    },
    {
      "inputs": [],
      "name": "owner",
      "outputs": [
        {
          "internalType": "address",
          "name": "",
          "type": "address"
        }
      ],
      "stateMutability": "view",
      "type": "function"
    },
    {
      "inputs": [
        {
          "internalType": "uint256",
          "name": "tokenId",
          "type": "uint256"
        }
      ],
      "name": "ownerOf",
      "outputs": [
        {
          "internalType": "address",
          "name": "",
          "type": "address"
        }
      ],
      "stateMutability": "view",
      "type": "function"
    },
    {
      "inputs": [],
      "name": "platformFeeBps",
      "outputs": [
        {
          "internalType": "uint96",
          "name": "",
          "type": "uint96"
        }
      ],
      "stateMutability": "view",
      "type": "function"
    },
    {
      "inputs": [],
      "name": "platformFeeReceiver",
      "outputs": [
        {
          "internalType": "address payable",
          "name": "",
          "type": "address"
        }
      ],
      "stateMutability": "view",
      "type": "function"
    },
    {
      "inputs": [
        {
          "internalType": "address",
          "name": "creator",
          "type": "address"
        },
        {
          "internalType": "string",
          "name": "uri",
          "type": "string"
        },
        {
          "internalType": "uint256",
          "name": "royaltyBps",
          "type": "uint256"
        },
        {
          "internalType": "uint256",
          "name": "pricePerPieceWei",
          "type": "uint256"
        },
        {
          "internalType": "uint256",
          "name": "maxSupply",
          "type": "uint256"
        },
        {
          "internalType": "uint96",
          "name": "quantity",
          "type": "uint96"
        },
        {
          "internalType": "bytes",
          "name": "signature",
          "type": "bytes"
        }
      ],
      "name": "redeemListing",
      "outputs": [
        {
          "internalType": "uint256",
          "name": "firstTokenId",
          "type": "uint256"
        }
      ],
      "stateMutability": "payable",
      "type": "function"
    },
    {
      "inputs": [],
      "name": "renounceOwnership",
      "outputs": [],
      "stateMutability": "nonpayable",
      "type": "function"
    },
    {
      "inputs": [
        {
          "internalType": "uint256",
          "name": "tokenId",
          "type": "uint256"
        },
        {
          "internalType": "uint256",
          "name": "salePrice",
          "type": "uint256"
        }
      ],
      "name": "royaltyInfo",
      "outputs": [
        {
          "internalType": "address",
          "name": "receiver",
          "type": "address"
        },
        {
          "internalType": "uint256",
          "name": "royaltyAmount",
          "type": "uint256"
        }
      ],
      "stateMutability": "view",
      "type": "function"
    },
    {
      "inputs": [
        {
          "internalType": "address",
          "name": "from",
          "type": "address"
        },
        {
          "internalType": "address",
          "name": "to",
          "type": "address"
        },
        {
          "internalType": "uint256",
          "name": "tokenId",
          "type": "uint256"
        }
      ],
      "name": "safeTransferFrom",
      "outputs": [],
      "stateMutability": "nonpayable",
      "type": "function"
    },
    {
      "inputs": [
        {
          "internalType": "address",
          "name": "from",
          "type": "address"
        },
        {
          "internalType": "address",
          "name": "to",
          "type": "address"
        },
        {
          "internalType": "uint256",
          "name": "tokenId",
          "type": "uint256"
        },
        {
          "internalType": "bytes",
          "name": "data",
          "type": "bytes"
        }
      ],
      "name": "safeTransferFrom",
      "outputs": [],
      "stateMutability": "nonpayable",
      "type": "function"
    },
    {
      "inputs": [
        {
          "internalType": "address",
          "name": "operator",
          "type": "address"
        },
        {
          "internalType": "bool",
          "name": "approved",
          "type": "bool"
        }
      ],
      "name": "setApprovalForAll",
      "outputs": [],
      "stateMutability": "nonpayable",
      "type": "function"
    },
    {
      "inputs": [
        {
          "internalType": "address payable",
          "name": "receiver",
          "type": "address"
        },
        {
          "internalType": "uint96",
          "name": "feeBps",
          "type": "uint96"
        }
      ],
      "name": "setPlatformFee",
      "outputs": [],
      "stateMutability": "nonpayable",
      "type": "function"
    },
    {
      "inputs": [
        {
          "internalType": "bytes4",
          "name": "interfaceId",
          "type": "bytes4"
        }
      ],
      "name": "supportsInterface",
      "outputs": [
        {
          "internalType": "bool",
          "name": "",
          "type": "bool"
        }
      ],
      "stateMutability": "view",
      "type": "function"
    },
    {
      "inputs": [],
      "name": "symbol",
      "outputs": [
        {
          "internalType": "string",
          "name": "",
          "type": "string"
        }
      ],
      "stateMutability": "view",
      "type": "function"
    },
    {
      "inputs": [
        {
          "internalType": "uint256",
          "name": "",
          "type": "uint256"
        }
      ],
      "name": "tokenRoyalty",
      "outputs": [
        {
          "internalType": "address",
          "name": "receiver",
          "type": "address"
        },
        {
          "internalType": "uint96",
          "name": "bps",
          "type": "uint96"
        }
      ],
      "stateMutability": "view",
      "type": "function"
    },
    {
      "inputs": [
        {
          "internalType": "uint256",
          "name": "tokenId",
          "type": "uint256"
        }
      ],
      "name": "tokenURI",
      "outputs": [
        {
          "internalType": "string",
          "name": "",
          "type": "string"
        }
      ],
      "stateMutability": "view",
      "type": "function"
    },
    {
      "inputs": [
        {
          "internalType": "address",
          "name": "from",
          "type": "address"
        },
        {
          "internalType": "address",
          "name": "to",
          "type": "address"
        },
        {
          "internalType": "uint256",
          "name": "tokenId",
          "type": "uint256"
        }
      ],
      "name": "transferFrom",
      "outputs": [],
      "stateMutability": "nonpayable",
      "type": "function"
    },
    {
      "inputs": [
        {
          "internalType": "address",
          "name": "newOwner",
          "type": "address"
        }
      ],
      "name": "transferOwnership",
      "outputs": [],
      "stateMutability": "nonpayable",
      "type": "function"
    }
  ],
  "bytecode": "0x608034620003c3576001600160401b0390601f19601f6200230e3881900382810184168501919086831186841017620003af578086926040948552833981010312620003c35782516001600160a01b03948582169491859003620003c357602091820151926001600160601b0384168403620003c3576200007f620003c7565b92601384527f447572636865784d756c74694c617a794e46540000000000000000000000000081850152620000b3620003c7565b90600682526504455522d4d560d41b81830152845196848811620003af575f978854966001978881811c91168015620003a4575b8582101462000390579081878493116200033d575b508490878311600114620002dd578b92620002d1575b50505f19600383901b1c191690871b1788555b8251948511620002bd5785548681811c91168015620002b2575b838210146200029e5790818587969594931162000245575b5081938511600114620001e15750508692620001d5575b50505f19600383901b1c191690821b1790555b60075460018060a01b03199233848316176007557f8be0079c531659141344cd1fd0a4f28419497f9722a3daafe3b4186f6b6457e0604051963393169180a360a01b1617600c55611f269081620003e88239f35b015190505f806200016e565b869593929193168589528389209389905b8282106200022b575050841162000212575b505050811b01905562000181565b01515f1960f88460031b161c191690555f808062000204565b8484015186558897909501949384019390810190620001f2565b9091929394508689528289208580880160051c82019285891062000294575b9188978a9297969594930160051c01915b8281106200028557505062000157565b8b815588975089910162000275565b9250819262000264565b634e487b7160e01b89526022600452602489fd5b90607f16906200013f565b634e487b7160e01b88526041600452602488fd5b015190505f8062000112565b90848a9416918c8052868d20928d5b888282106200032657505084116200030d575b505050811b01885562000125565b01515f1960f88460031b161c191690555f8080620002ff565b8385015186558d97909501949384019301620002ec565b9091508a8052848b208780850160051c82019287861062000386575b918b91869594930160051c01915b82811062000377575050620000fc565b8d81558594508b910162000367565b9250819262000359565b634e487b7160e01b8b52602260045260248bfd5b90607f1690620000e7565b634e487b7160e01b5f52604160045260245ffd5b5f80fd5b60408051919082016001600160401b03811183821017620003af5760405256fe6080806040526004361015610012575f80fd5b5f3560e01c90816301ffc9a71461140d5750806306fdde031461136d578063081812fc1461134f578063095ea7b3146111db5780631ff4a420146111a257806322dcd13e1461118257806323b872dd1461115957806329aec3981461113d5780632a55205a146111065780632d656ad7146110de57806342842e0e146110b75780636352211e1461108757806370a0823114610ff2578063715018a614610f975780637fe5d7b714610f0557806382659b771461062a5780638da5cb5b1461060257806393d7e122146105cf57806395d89b41146104f3578063a22cb46514610425578063b88d4fde146103d4578063c18b8db414610379578063c87b56dd14610277578063e985e9c514610225578063f2fde38b146101625763ffe827251461013a575f80fd5b3461015e57602061015661014d3661160f565b939290926116bc565b604051908152f35b5f80fd5b3461015e57602036600319011261015e5761017b6114f2565b6101836117bc565b6001600160a01b039081169081156101d157600754826001600160601b0360a01b821617600755167f8be0079c531659141344cd1fd0a4f28419497f9722a3daafe3b4186f6b6457e05f80a3005b60405162461bcd60e51b815260206004820152602660248201527f4f776e61626c653a206e6577206f776e657220697320746865207a65726f206160448201526564647265737360d01b6064820152608490fd5b3461015e57604036600319011261015e5761023e6114f2565b610246611508565b9060018060a01b038091165f52600560205260405f2091165f52602052602060ff60405f2054166040519015158152f35b3461015e5760208060031936011261015e576004355f818152600260205260409020546102ae906001600160a01b03161515611a26565b5f526006815260405f209060405191825f82546102ca81611814565b938484526001918683821691825f1461035757505060011461031b575b50506102f59250038361158b565b5f6040516103028161156f565b526103176040519282849384528301906114cd565b0390f35b8592505f52815f20905f915b85831061033f5750506102f5935082010185806102e7565b80548389018501528794508693909201918101610327565b92509350506102f594915060ff191682840152151560051b82010185806102e7565b3461015e57602036600319011261015e576004355f526009602052608060405f20600181549101546040519160018060a01b038116835260a01c60208301526001600160601b0390818116604084015260601c166060820152f35b3461015e57608036600319011261015e576103ed6114f2565b6103f5611508565b6064359167ffffffffffffffff831161015e576104196104239336906004016115c9565b9160443591611b35565b005b3461015e57604036600319011261015e5761043e6114f2565b6024359081151580920361015e576001600160a01b0316903382146104ae57335f52600560205260405f20825f5260205260405f2060ff1981541660ff83161790556040519081527f17307eab39ab6107e8899845ad3d59bd9653f200f220920489ca2b5937696c3160203392a3005b60405162461bcd60e51b815260206004820152601960248201527f4552433732313a20617070726f766520746f2063616c6c6572000000000000006044820152606490fd5b3461015e575f36600319011261015e576040515f600180549061051582611814565b808552918181169081156105a85750600114610550575b6103178461053c8186038261158b565b6040519182916020835260208301906114cd565b5f81815292507fb10e2d527612073b26eecdfd717e6a320cf44b4afac2b0732d9fcbe2b7fa0cf65b82841061059057505050810160200161053c8261052c565b80546020858701810191909152909301928101610578565b60ff191660208087019190915292151560051b8501909201925061053c915083905061052c565b3461015e57602036600319011261015e576004355f52600860205260206001600160601b0360405f205416604051908152f35b3461015e575f36600319011261015e576007546040516001600160a01b039091168152602090f35b60e036600319011261015e5761063e6114f2565b60243567ffffffffffffffff811161015e5761065e9036906004016115c9565b6001600160601b0360a4351660a4350361015e5760c43567ffffffffffffffff811161015e576106929036906004016115c9565b60016001600160601b0360a4351610610ec85761138860443511610e90576106f9610701916106ca60843560643560443587896116bc565b7f19457468657265756d205369676e6564204d6573736167653a0a3332000000005f52601c52603c5f20611964565b91909161184c565b6001600160a01b03838116911603610e4b57610726608435606435604435848661165e565b91825f5260086020526001600160601b0360405f205416916084356001600160601b0361075560a435866116e0565b1611610e1b576107726001600160601b0360a435166064356116fb565b803410610de1578315610d2a575b600b54935f5b6001600160601b0360a435166001600160601b038216106109cc57506107af9060a435906116e0565b855f5260086020526001600160601b0360405f2091166001600160601b0319825416179055600c546127106107e78260a01c846116fb565b046107f2818461170e565b91811515806109ba575b61094d575b5050806108e7575b5080341161088d575b506020937fdfee89606fdd772ef3501b2fb027e0e731f7c1df29654bca21d73a1649f444fb610862604051938685526001600160601b0360a43516888601526080604086015260808501906114cd565b6064356001600160601b0316606085015233946001600160a01b0316939081900390a4604051908152f35b5f808061089b81943461170e565b335af16108a661171b565b50156108b25784610812565b60405162461bcd60e51b815260206004820152600d60248201526c1499599d5b990819985a5b1959609a1b6044820152606490fd5b5f908190819081906001600160a01b0388165af161090361171b565b501561090f5785610809565b60405162461bcd60e51b815260206004820152601660248201527510dc99585d1bdc881c185e5b595b9d0819985a5b195960521b6044820152606490fd5b5f918291829182916001600160a01b03165af161096861171b565b5015610975578680610801565b60405162461bcd60e51b815260206004820152601c60248201527f506c6174666f726d20666565207472616e73666572206661696c6564000000006044820152606490fd5b506001600160a01b03811615156107fc565b600b545f198114610bae5760018101600b553315610ce6575f81815260026020526040902054610a08906001600160a01b031615155b15611c3a565b5f81815260026020526040902054610a2a906001600160a01b03161515610a02565b335f52600360205260405f2060018154019055805f52600260205260405f20336001600160601b0360a01b82541617905580335f7fddf252ad1be2c89b69c2b068fc378daa952ba7f163c4a11628f55a4df523b3ef8180a45f818152600260205260409020546001600160a01b031615610c8a57805f52600660205260405f20855167ffffffffffffffff8111610c7657610ac58254611814565b601f8111610c35575b506020601f8211600114610bcd579080610b8d9493925f91610bc2575b508160011b915f199060031b1c19161790555b7ff8e1a15aba9398e019f0b49df1a4fde98ee17ae345cb5f6b5e2c27f5033e8ce76020604051838152a16001600160601b0360405191610b3d83611553565b6001600160a01b038981168452604435831660208086019182525f938452600a9052604090922093518454925160a085811b94909416831691909216179216901b6001600160a01b031916179055565b6001600160601b0380821614610bae576001600160601b0316600101610786565b634e487b7160e01b5f52601160045260245ffd5b90508801518c610aeb565b825f5260205f20905f5b601f1984168110610c1d575091600191610b8d95949382601f19811610610c05575b5050811b019055610afe565b8a01515f1960f88460031b161c191690558c80610bf9565b9091602060018192858d015181550193019101610bd7565b825f5260205f20601f830160051c810160208410610c6f575b601f830160051c82018110610c64575050610ace565b5f8155600101610c4e565b5080610c4e565b634e487b7160e01b5f52604160045260245ffd5b60405162461bcd60e51b815260206004820152602e60248201527f45524337323155524953746f726167653a2055524920736574206f66206e6f6e60448201526d32bc34b9ba32b73a103a37b5b2b760911b6064820152608490fd5b606460405162461bcd60e51b815260206004820152602060248201527f4552433732313a206d696e7420746f20746865207a65726f20616464726573736044820152fd5b60405180608081011067ffffffffffffffff608083011117610c76576080810160409081526001600160a01b0385811683526044356001600160601b03908116602080860191825260843583168587019081526064358416606088019081525f8d81526009909352959091209551915160a01b6001600160a01b0319169190931617845590926001019251168254916001600160601b0360601b905160601b169167ffffffffffffffff60c01b1617179055610780565b60405162461bcd60e51b8152602060048201526012602482015271496e73756666696369656e742076616c756560701b6044820152606490fd5b60405162461bcd60e51b815260206004820152600860248201526714dbdb19081bdd5d60c21b6044820152606490fd5b60405162461bcd60e51b815260206004820152601960248201527f496e76616c6964206c697374696e67207369676e6174757265000000000000006044820152606490fd5b60405162461bcd60e51b815260206004820152601060248201526f0a4def2c2d8e8f240e8dede40d0d2ced60831b6044820152606490fd5b60405162461bcd60e51b81526020600482015260156024820152745175616e74697479206d757374206265203e3d203160581b6044820152606490fd5b3461015e57604036600319011261015e576004356001600160a01b0381169081900361015e576024356001600160601b03811680820361015e576103e890610f4b6117bc565b11610f635760a01b6001600160a01b03191617600c55005b60405162461bcd60e51b815260206004820152600c60248201526b08ccaca40e8dede40d0d2ced60a31b6044820152606490fd5b3461015e575f36600319011261015e57610faf6117bc565b600780546001600160a01b031981169091555f906001600160a01b03167f8be0079c531659141344cd1fd0a4f28419497f9722a3daafe3b4186f6b6457e08280a3005b3461015e57602036600319011261015e576001600160a01b036110136114f2565b168015611030575f526003602052602060405f2054604051908152f35b60405162461bcd60e51b815260206004820152602960248201527f4552433732313a2061646472657373207a65726f206973206e6f7420612076616044820152683634b21037bbb732b960b91b6064820152608490fd5b3461015e57602036600319011261015e5760206110a5600435611a72565b6040516001600160a01b039091168152f35b3461015e576104236110c83661151e565b90604051926110d68461156f565b5f8452611b35565b3461015e575f36600319011261015e57600c546040516001600160a01b039091168152602090f35b3461015e57604036600319011261015e57604061112760243560043561174a565b82516001600160a01b0390921682526020820152f35b3461015e5760206101566111503661160f565b9392909261165e565b3461015e5761042361116a3661151e565b9161117d6111788433611bd0565b611ad3565b611ce0565b3461015e575f36600319011261015e576020600c5460a01c604051908152f35b3461015e57602036600319011261015e576004355f52600a6020526040805f205481519060018060a01b038116825260a01c6020820152f35b3461015e57604036600319011261015e576111f46114f2565b602435906001600160a01b03808061120b85611a72565b16921691808314611300578033149081156112df575b5015611274575f83815260046020526040902080546001600160a01b0319168317905561124d83611a72565b167f8c5be1e5ebec7d5bd14f71427d1e84f3dd0314c0f7b2291e5b200ac8c7c3b9255f80a4005b60405162461bcd60e51b815260206004820152603d60248201527f4552433732313a20617070726f76652063616c6c6572206973206e6f7420746f60448201527f6b656e206f776e6572206f7220617070726f76656420666f7220616c6c0000006064820152608490fd5b90505f52600560205260405f20335f5260205260ff60405f20541684611221565b60405162461bcd60e51b815260206004820152602160248201527f4552433732313a20617070726f76616c20746f2063757272656e74206f776e656044820152603960f91b6064820152608490fd5b3461015e57602036600319011261015e5760206110a5600435611a97565b3461015e575f36600319011261015e576040515f805461138c81611814565b808452906001908181169081156105a857506001146113b5576103178461053c8186038261158b565b5f80805292507f290decd9548b62a8d60345a988386fc84ba6bc95484008f6362f93160ef3e5635b8284106113f557505050810160200161053c8261052c565b805460208587018101919091529093019281016113dd565b3461015e57602036600319011261015e576004359063ffffffff60e01b821680920361015e5760209163152a902d60e11b811490811561144f575b5015158152f35b632483248360e11b811491508115611469575b5083611448565b6380ac58cd60e01b81149150811561149b575b811561148a575b5083611462565b6301ffc9a760e01b14905083611483565b635b5e139f60e01b8114915061147c565b5f5b8381106114bd5750505f910152565b81810151838201526020016114ae565b906020916114e6815180928185528580860191016114ac565b601f01601f1916010190565b600435906001600160a01b038216820361015e57565b602435906001600160a01b038216820361015e57565b606090600319011261015e576001600160a01b0390600435828116810361015e5791602435908116810361015e579060443590565b6040810190811067ffffffffffffffff821117610c7657604052565b6020810190811067ffffffffffffffff821117610c7657604052565b90601f8019910116810190811067ffffffffffffffff821117610c7657604052565b67ffffffffffffffff8111610c7657601f01601f191660200190565b81601f8201121561015e578035906115e0826115ad565b926115ee604051948561158b565b8284526020838301011161015e57815f926020809301838601378301015290565b9060a060031983011261015e576004356001600160a01b038116810361015e57916024359067ffffffffffffffff821161015e5761164f916004016115c9565b90604435906064359060843590565b93906116b69260949260405195869360208501986001600160601b03199060601b1689526116968151809260206034890191016114ac565b84019260348401526054830152607482015203607481018452018261158b565b51902090565b906116c99493929161165e565b60405160208101918252602081526116b681611553565b9190916001600160601b0380809416911601918211610bae57565b81810292918115918404141715610bae57565b91908203918211610bae57565b3d15611745573d9061172c826115ad565b9161173a604051938461158b565b82523d5f602084013e565b606090565b916020925f52600a835260405f206040519061176582611553565b546001600160a01b03811680835260a09190911c94909101849052801580156117b4575b6117ab5761179b6127109194846116fb565b04918083116117a75750565b9150565b505f9250829150565b508315611789565b6007546001600160a01b031633036117d057565b606460405162461bcd60e51b815260206004820152602060248201527f4f776e61626c653a2063616c6c6572206973206e6f7420746865206f776e65726044820152fd5b90600182811c92168015611842575b602083101461182e57565b634e487b7160e01b5f52602260045260245ffd5b91607f1691611823565b6005811015611950578061185d5750565b600181036118aa5760405162461bcd60e51b815260206004820152601860248201527f45434453413a20696e76616c6964207369676e617475726500000000000000006044820152606490fd5b600281036118f75760405162461bcd60e51b815260206004820152601f60248201527f45434453413a20696e76616c6964207369676e6174757265206c656e677468006044820152606490fd5b60031461190057565b60405162461bcd60e51b815260206004820152602260248201527f45434453413a20696e76616c6964207369676e6174757265202773272076616c604482015261756560f01b6064820152608490fd5b634e487b7160e01b5f52602160045260245ffd5b9060418151145f146119905761198c91602082015190606060408401519301515f1a90611999565b9091565b50505f90600290565b9291907f7fffffffffffffffffffffffffffffff5d576e7357a4501ddfe92f46681b20a08311611a1b5791608094939160ff6020946040519485521684840152604083015260608201525f93849182805260015afa15611a0e5781516001600160a01b03811615611a08579190565b50600190565b50604051903d90823e3d90fd5b505050505f90600390565b15611a2d57565b60405162461bcd60e51b815260206004820152601860248201527f4552433732313a20696e76616c696420746f6b656e20494400000000000000006044820152606490fd5b5f908152600260205260409020546001600160a01b0316611a94811515611a26565b90565b5f81815260026020526040902054611ab9906001600160a01b03161515611a26565b5f908152600460205260409020546001600160a01b031690565b15611ada57565b60405162461bcd60e51b815260206004820152602d60248201527f4552433732313a2063616c6c6572206973206e6f7420746f6b656e206f776e6560448201526c1c881bdc88185c1c1c9bdd9959609a1b6064820152608490fd5b90611b59939291611b496111788433611bd0565b611b54838383611ce0565b611def565b15611b6057565b60405162461bcd60e51b815280611b7960048201611b7d565b0390fd5b60809060208152603260208201527f4552433732313a207472616e7366657220746f206e6f6e20455243373231526560408201527131b2b4bb32b91034b6b83632b6b2b73a32b960711b60608201520190565b906001600160a01b038080611be484611a72565b16931691838314938415611c17575b508315611c01575b50505090565b611c0d91929350611a97565b16145f8080611bfb565b9093505f52600560205260405f20825f5260205260ff60405f205416925f611bf3565b15611c4157565b60405162461bcd60e51b815260206004820152601c60248201527f4552433732313a20746f6b656e20616c7265616479206d696e746564000000006044820152606490fd5b15611c8d57565b60405162461bcd60e51b815260206004820152602560248201527f4552433732313a207472616e736665722066726f6d20696e636f72726563742060448201526437bbb732b960d91b6064820152608490fd5b90611d0891611cee84611a72565b6001600160a01b0393918416928492909183168414611c86565b16918215611d9e5781611d2591611d1e86611a72565b1614611c86565b7fddf252ad1be2c89b69c2b068fc378daa952ba7f163c4a11628f55a4df523b3ef5f8481526004602052604081206001600160601b0360a01b908181541690558382526003602052604082205f1981540190558482526040822060018154019055858252600260205284604083209182541617905580a4565b60405162461bcd60e51b8152602060048201526024808201527f4552433732313a207472616e7366657220746f20746865207a65726f206164646044820152637265737360e01b6064820152608490fd5b919290803b15611ee757604051630a85bd0160e11b8082523360048301526001600160a01b03948516602483015260448201959095526080606482015291602091839182908190611e449060848301906114cd565b03915f968791165af190829082611e98575b5050611e8a57611e6461171b565b80519081611e855760405162461bcd60e51b815280611b7960048201611b7d565b602001fd5b6001600160e01b0319161490565b909192506020813d8211611edf575b81611eb46020938361158b565b81010312611edb5751906001600160e01b031982168203611ed85750905f80611e56565b80fd5b5080fd5b3d9150611ea7565b5050505060019056fea2646970667358221220647ed944b5b70b3c781105b9d0e8887bf2deed4f1fc9c5ba13130c722055ff7b64736f6c63430008140033",
  "linkReferences": {},
  "deployedLinkReferences": {}
}