{
  "_format": "hh-sol-artifact-1",
  "contractName": "NFTMarketplaceV2",
  "sourceName": "contracts/NFTMarketplaceV2.sol",
  "abi": [
    {
      "inputs": [
        {
          "internalType": "address payable",
          "name": "_platformFeeReceiver",
          "type": "address"
        }
      ],
      "stateMutability": "nonpayable",
      "type": "constructor"
    },
    {
      "inputs": [],
      "name": "InvalidShortString",
      "type": "error"
    },
    {
      "inputs": [
        {
          "internalType": "string",
          "name": "str",
          "type": "string"
        }
      ],
      "name": "StringTooLong",
      "type": "error"
    },
    {
      "anonymous": false,
      "inputs": [],
      "name": "EIP712DomainChanged",
      "type": "event"
    },
    {
      "anonymous": false,
      "inputs": [
        {
          "indexed": true,
          "internalType": "uint256",
          "name": "listingId",
          "type": "uint256"
        },
        {
          "indexed": true,
          "internalType": "address",
          "name": "seller",
          "type": "address"
        }
      ],
      "name": "ListingCancelled",
      "type": "event"
    },
    {
      "anonymous": false,
      "inputs": [
        {
          "indexed": true,
          "internalType": "uint256",
          "name": "listingId",
          "type": "uint256"
        },
        {
          "indexed": true,
          "internalType": "address",
          "name": "seller",
          "type": "address"
        },
        {
          "indexed": true,
          "internalType": "address",
          "name": "nftContract",
          "type": "address"
        },
        {
          "indexed": false,
          "internalType": "uint256",
          "name": "tokenId",
          "type": "uint256"
        }
      ],
      "name": "ListingCreated",
      "type": "event"
    },
    {
      "anonymous": false,
      "inputs": [
        {
          "indexed": true,
          "internalType": "uint256",
          "name": "listingId",
          "type": "uint256"
        },
        {
          "indexed": true,
          "internalType": "address",
          "name": "buyer",
          "type": "address"
        },
        {
          "indexed": true,
          "internalType": "address",
          "name": "seller",
          "type": "address"
        },
        {
          "indexed": false,
          "internalType": "uint256",
          "name": "price",
          "type": "uint256"
        }
      ],
      "name": "ListingExecuted",
      "type": "event"
    },
    {
      "anonymous": false,
      "inputs": [
        {
          "indexed": true,
          "internalType": "uint256",
          "name": "offerId",
          "type": "uint256"
        },
        {
          "indexed": true,
          "internalType": "address",
          "name": "seller",
          "type": "address"
        },
        {
          "indexed": true,
          "internalType": "address",
          "name": "buyer",
          "type": "address"
        }
      ],
      "name": "OfferAccepted",
      "type": "event"
    },
    {
      "anonymous": false,
      "inputs": [
        {
          "indexed": true,
          "internalType": "uint256",
          "name": "offerId",
          "type": "uint256"
        },
        {
          "indexed": true,
          "internalType": "address",
          "name": "buyer",
          "type": "address"
        }
      ],
      "name": "OfferCancelled",
      "type": "event"
    },
    {
      "anonymous": false,
      "inputs": [
        {
          "indexed": true,
          "internalType": "uint256",
          "name": "offerId",
          "type": "uint256"
        },
        {
          "indexed": true,
          "internalType": "address",
          "name": "buyer",
          "type": "address"
        },
        {
          "indexed": true,
          "internalType": "address",
          "name": "nftContract",
          "type": "address"
        },
        {
          "indexed": false,
          "internalType": "uint256",
          "name": "tokenId",
          "type": "uint256"
        }
      ],
      "name": "OfferCreated",
      "type": "event"
    },
    {
      "anonymous": false,
      "inputs": [
        {
          "indexed": true,
          "internalType": "address",
          "name": "previousOwner",
          "type": "address"
        },
        {
          "indexed": true,
          "internalType": "address",
          "name": "newOwner",
          "type": "address"
        }
      ],
      "name": "OwnershipTransferred",
      "type": "event"
    },
    {
      "inputs": [
        {
          "internalType": "uint256",
          "name": "offerId",
          "type": "uint256"
        }
      ],
      "name": "acceptOffer",
      "outputs": [],
      "stateMutability": "nonpayable",
      "type": "function"
    },
    {
      "inputs": [
        {
          "internalType": "uint256",
          "name": "listingId",
          "type": "uint256"
        }
      ],
      "name": "cancelListing",
      "outputs": [],
      "stateMutability": "nonpayable",
      "type": "function"
    },
    {
      "inputs": [
        {
          "internalType": "uint256",
          "name": "offerId",
          "type": "uint256"
        }
      ],
      "name": "cancelOffer",
      "outputs": [],
      "stateMutability": "nonpayable",
      "type": "function"
    },
    {
      "inputs": [
        {
          "components": [
            {
              "internalType": "address",
              "name": "seller",
              "type": "address"
            },
            {
              "internalType": "address",
              "name": "nftContract",
              "type": "address"
            },
            {
              "internalType": "uint256",
              "name": "tokenId",
              "type": "uint256"
            },
            {
              "internalType": "uint256",
              "name": "quantity",
              "type": "uint256"
            },
            {
              "internalType": "uint256",
              "name": "price",
              "type": "uint256"
            },
            {
              "internalType": "uint256",
              "name": "startTime",
              "type": "uint256"
            },
            {
              "internalType": "uint256",
              "name": "endTime",
              "type": "uint256"
            },
            {
              "internalType": "address",
              "name": "paymentToken",
              "type": "address"
            },
            {
              "internalType": "bool",
              "name": "isERC1155",
              "type": "bool"
            },
            {
              "internalType": "uint256",
              "name": "nonce",
              "type": "uint256"
            }
          ],
          "internalType": "struct NFTMarketplaceV2.SignedListing",
          "name": "signedListing",
          "type": "tuple"
        },
        {
          "internalType": "bytes",
          "name": "signature",
          "type": "bytes"
        }
      ],
      "name": "createListing",
      "outputs": [],
      "stateMutability": "nonpayable",
      "type": "function"
    },
    {
      "inputs": [
        {
          "components": [
            {
              "internalType": "address",
              "name": "buyer",
              "type": "address"
            },
            {
              "internalType": "address",
              "name": "nftContract",
              "type": "address"
            },
            {
              "internalType": "uint256",
              "name": "tokenId",
              "type": "uint256"
            },
            {
              "internalType": "uint256",
              "name": "quantity",
              "type": "uint256"
            },
            {
              "internalType": "uint256",
              "name": "price",
              "type": "uint256"
            },
            {
              "internalType": "uint256",
              "name": "expiration",
              "type": "uint256"
            },
            {
              "internalType": "address",
              "name": "paymentToken",
              "type": "address"
            },
            {
              "internalType": "uint256",
              "name": "nonce",
              "type": "uint256"
            }
          ],
          "internalType": "struct NFTMarketplaceV2.SignedOffer",
          "name": "signedOffer",
          "type": "tuple"
        },
        {
          "internalType": "bytes",
          "name": "signature",
          "type": "bytes"
        }
      ],
      "name": "createOffer",
      "outputs": [],
      "stateMutability": "payable",
      "type": "function"
    },
    {
      "inputs": [],
      "name": "eip712Domain",
      "outputs": [
        {
          "internalType": "bytes1",
          "name": "fields",
          "type": "bytes1"
        },
        {
          "internalType": "string",
          "name": "name",
          "type": "string"
        },
        {
          "internalType": "string",
          "name": "version",
          "type": "string"
        },
        {
          "internalType": "uint256",
          "name": "chainId",
          "type": "uint256"
        },
        {
          "internalType": "address",
          "name": "verifyingContract",
          "type": "address"
        },
        {
          "internalType": "bytes32",
          "name": "salt",
          "type": "bytes32"
        },
        {
          "internalType": "uint256[]",
          "name": "extensions",
          "type": "uint256[]"
        }
      ],
      "stateMutability": "view",
      "type": "function"
    },
    {
      "inputs": [
        {
          "internalType": "uint256",
          "name": "listingId",
          "type": "uint256"
        },
        {
          "internalType": "uint256",
          "name": "quantity",
          "type": "uint256"
        }
      ],
      "name": "executeSale",
      "outputs": [],
      "stateMutability": "payable",
      "type": "function"
    },
    {
      "inputs": [
        {
          "internalType": "uint256",
          "name": "offset",
          "type": "uint256"
        },
        {
          "internalType": "uint256",
          "name": "limit",
          "type": "uint256"
        }
      ],
      "name": "getActiveListings",
      "outputs": [
        {
          "components": [
            {
              "internalType": "uint256",
              "name": "listingId",
              "type": "uint256"
            },
            {
              "internalType": "address",
              "name": "seller",
              "type": "address"
            },
            {
              "internalType": "address",
              "name": "nftContract",
              "type": "address"
            },
            {
              "internalType": "uint256",
              "name": "tokenId",
              "type": "uint256"
            },
            {
              "internalType": "uint256",
              "name": "quantity",
              "type": "uint256"
            },
            {
              "internalType": "uint256",
              "name": "price",
              "type": "uint256"
            },
            {
              "internalType": "uint256",
              "name": "startTime",
              "type": "uint256"
            },
            {
              "internalType": "uint256",
              "name": "endTime",
              "type": "uint256"
            },
            {
              "internalType": "address",
              "name": "paymentToken",
              "type": "address"
            },
            {
              "internalType": "bool",
              "name": "isERC1155",
              "type": "bool"
            },
            {
              "internalType": "bool",
              "name": "active",
              "type": "bool"
            }
          ],
          "internalType": "struct NFTMarketplaceV2.Listing[]",
          "name": "",
          "type": "tuple[]"
        }
      ],
      "stateMutability": "view",
      "type": "function"
    },
    {
      "inputs": [
        {
          "internalType": "uint256",
          "name": "listingId",
          "type": "uint256"
        }
      ],
      "name": "getListing",
      "outputs": [
        {
          "components": [
            {
              "internalType": "uint256",
              "name": "listingId",
              "type": "uint256"
            },
            {
              "internalType": "address",
              "name": "seller",
              "type": "address"
            },
            {
              "internalType": "address",
              "name": "nftContract",
              "type": "address"
            },
            {
              "internalType": "uint256",
              "name": "tokenId",
              "type": "uint256"
            },
            {
              "internalType": "uint256",
              "name": "quantity",
              "type": "uint256"
            },
            {
              "internalType": "uint256",
              "name": "price",
              "type": "uint256"
            },
            {
              "internalType": "uint256",
              "name": "startTime",
              "type": "uint256"
            },
            {
              "internalType": "uint256",
              "name": "endTime",
              "type": "uint256"
            },
            {
              "internalType": "address",
              "name": "paymentToken",
              "type": "address"
            },
            {
              "internalType": "bool",
              "name": "isERC1155",
              "type": "bool"
            },
            {
              "internalType": "bool",
              "name": "active",
              "type": "bool"
            }
          ],
          "internalType": "struct NFTMarketplaceV2.Listing",
          "name": "",
          "type": "tuple"
        }
      ],
      "stateMutability": "view",
      "type": "function"
    },
    {
      "inputs": [
        {
          "components": [
            {
              "internalType": "address",
              "name": "seller",
              "type": "address"
            },
            {
              "internalType": "address",
              "name": "nftContract",
              "type": "address"
            },
            {
              "internalType": "uint256",
              "name": "tokenId",
              "type": "uint256"
            },
            {
              "internalType": "uint256",
              "name": "quantity",
              "type": "uint256"
            },
            {
              "internalType": "uint256",
              "name": "price",
              "type": "uint256"
            },
            {
              "internalType": "uint256",
              "name": "startTime",
              "type": "uint256"
            },
            {
              "internalType": "uint256",
              "name": "endTime",
              "type": "uint256"
            },
            {
              "internalType": "address",
              "name": "paymentToken",
              "type": "address"
            },
            {
              "internalType": "bool",
              "name": "isERC1155",
              "type": "bool"
            },
            {
              "internalType": "uint256",
              "name": "nonce",
              "type": "uint256"
            }
          ],
          "internalType": "struct NFTMarketplaceV2.SignedListing",
          "name": "listing",
          "type": "tuple"
        }
      ],
      "name": "getListingDigest",
      "outputs": [
        {
          "internalType": "bytes32",
          "name": "",
          "type": "bytes32"
        }
      ],
      "stateMutability": "view",
      "type": "function"
    },
    {
      "inputs": [
        {
          "internalType": "uint256",
          "name": "offerId",
          "type": "uint256"
        }
      ],
      "name": "getOffer",
      "outputs": [
        {
          "components": [
            {
              "internalType": "uint256",
              "name": "offerId",
              "type": "uint256"
            },
            {
              "internalType": "address",
              "name": "buyer",
              "type": "address"
            },
            {
              "internalType": "address",
              "name": "nftContract",
              "type": "address"
            },
            {
              "internalType": "uint256",
              "name": "tokenId",
              "type": "uint256"
            },
            {
              "internalType": "uint256",
              "name": "quantity",
              "type": "uint256"
            },
            {
              "internalType": "uint256",
              "name": "price",
              "type": "uint256"
            },
            {
              "internalType": "uint256",
              "name": "expiration",
              "type": "uint256"
            },
            {
              "internalType": "address",
              "name": "paymentToken",
              "type": "address"
            },
            {
              "internalType": "bool",
              "name": "active",
              "type": "bool"
            }
          ],
          "internalType": "struct NFTMarketplaceV2.Offer",
          "name": "",
          "type": "tuple"
        }
      ],
      "stateMutability": "view",
      "type": "function"
    },
    {
      "inputs": [
        {
          "components": [
            {
              "internalType": "address",
              "name": "buyer",
              "type": "address"
            },
            {
              "internalType": "address",
              "name": "nftContract",
              "type": "address"
            },
            {
              "internalType": "uint256",
              "name": "tokenId",
              "type": "uint256"
            },
            {
              "internalType": "uint256",
              "name": "quantity",
              "type": "uint256"
            },
            {
              "internalType": "uint256",
              "name": "price",
              "type": "uint256"
            },
            {
              "internalType": "uint256",
              "name": "expiration",
              "type": "uint256"
            },
            {
              "internalType": "address",
              "name": "paymentToken",
              "type": "address"
            },
            {
              "internalType": "uint256",
              "name": "nonce",
              "type": "uint256"
            }
          ],
          "internalType": "struct NFTMarketplaceV2.SignedOffer",
          "name": "offer",
          "type": "tuple"
        }
      ],
      "name": "getOfferDigest",
      "outputs": [
        {
          "internalType": "bytes32",
          "name": "",
          "type": "bytes32"
        }
      ],
      "stateMutability": "view",
      "type": "function"
    },
    {
      "inputs": [],
      "name": "listingCounter",
      "outputs": [
        {
          "internalType": "uint256",
          "name": "",
          "type": "uint256"
        }
      ],
      "stateMutability": "view",
      "type": "function"
    },
    {
      "inputs": [
        {
          "internalType": "uint256",
          "name": "",
          "type": "uint256"
        }
      ],
      "name": "listings",
      "outputs": [
        {
          "internalType": "uint256",
          "name": "listingId",
          "type": "uint256"
        },
        {
          "internalType": "address",
          "name": "seller",
          "type": "address"
        },
        {
          "internalType": "address",
          "name": "nftContract",
          "type": "address"
        },
        {
          "internalType": "uint256",
          "name": "tokenId",
          "type": "uint256"
        },
        {
          "internalType": "uint256",
          "name": "quantity",
          "type": "uint256"
        },
        {
          "internalType": "uint256",
          "name": "price",
          "type": "uint256"
        },
        {
          "internalType": "uint256",
          "name": "startTime",
          "type": "uint256"
        },
        {
          "internalType": "uint256",
          "name": "endTime",
          "type": "uint256"
        },
        {
          "internalType": "address",
          "name": "paymentToken",
          "type": "address"
        },
        {
          "internalType": "bool",
          "name": "isERC1155",
          "type": "bool"
        },
        {
          "internalType": "bool",
          "name": "active",
          "type": "bool"
        }
      ],
      "stateMutability": "view",
      "type": "function"
    },
    {
      "inputs": [
        {
          "internalType": "address",
          "name": "",
          "type": "address"
        }
      ],
      "name": "nonces",
      "outputs": [
        {
          "internalType": "uint256",
          "name": "",
          "type": "uint256"
        }
      ],
      "stateMutability": "view",
      "type": "function"
    },
    {
      "inputs": [],
      "name": "offerCounter",
      "outputs": [
        {
          "internalType": "uint256",
          "name": "",
          "type": "uint256"
        }
      ],
      "stateMutability": "view",
      "type": "function"
    },
    {
      "inputs": [
        {
          "internalType": "uint256",
          "name": "",
          "type": "uint256"
        }
      ],
      "name": "offers",
      "outputs": [
        {
          "internalType": "uint256",
          "name": "offerId",
          "type": "uint256"
        },
        {
          "internalType": "address",
          "name": "buyer",
          "type": "address"
        },
        {
          "internalType": "address",
          "name": "nftContract",
          "type": "address"
        },
        {
          "internalType": "uint256",
          "name": "tokenId",
          "type": "uint256"
        },
        {
          "internalType": "uint256",
          "name": "quantity",
          "type": "uint256"
        },
        {
          "internalType": "uint256",
          "name": "price",
          "type": "uint256"
        },
        {
          "internalType": "uint256",
          "name": "expiration",
          "type": "uint256"
        },
        {
          "internalType": "address",
          "name": "paymentToken",
          "type": "address"
        },
        {
          "internalType": "bool",
          "name": "active",
          "type": "bool"
        }
      ],
      "stateMutability": "view",
      "type": "function"
    },
    {
      "inputs": [
        {
          "internalType": "address",
          "name": "",
          "type": "address"
        },
        {
          "internalType": "address",
          "name": "",
          "type": "address"
        },
        {
          "internalType": "uint256[]",
          "name": "",
          "type": "uint256[]"
        },
        {
          "internalType": "uint256[]",
          "name": "",
          "type": "uint256[]"
        },
        {
          "internalType": "bytes",
          "name": "",
          "type": "bytes"
        }
      ],
      "name": "onERC1155BatchReceived",
      "outputs": [
        {
          "internalType": "bytes4",
          "name": "",
          "type": "bytes4"
        }
      ],
      "stateMutability": "pure",
      "type": "function"
    },
    {
      "inputs": [
        {
          "internalType": "address",
          "name": "",
          "type": "address"
        },
        {
          "internalType": "address",
          "name": "",
          "type": "address"
        },
        {
          "internalType": "uint256",
          "name": "",
          "type": "uint256"
        },
        {
          "internalType": "uint256",
          "name": "",
          "type": "uint256"
        },
        {
          "internalType": "bytes",
          "name": "",
          "type": "bytes"
        }
      ],
      "name": "onERC1155Received",
      "outputs": [
        {
          "internalType": "bytes4",
          "name": "",
          "type": "bytes4"
        }
      ],
      "stateMutability": "pure",
      "type": "function"
    },
    {
      "inputs": [],
      "name": "owner",
      "outputs": [
        {
          "internalType": "address",
          "name": "",
          "type": "address"
        }
      ],
      "stateMutability": "view",
      "type": "function"
    },
    {
      "inputs": [],
      "name": "platformFeeBps",
      "outputs": [
        {
          "internalType": "uint256",
          "name": "",
          "type": "uint256"
        }
      ],
      "stateMutability": "view",
      "type": "function"
    },
    {
      "inputs": [],
      "name": "platformFeeReceiver",
      "outputs": [
        {
          "internalType": "address payable",
          "name": "",
          "type": "address"
        }
      ],
      "stateMutability": "view",
      "type": "function"
    },
    {
      "inputs": [],
      "name": "renounceOwnership",
      "outputs": [],
      "stateMutability": "nonpayable",
      "type": "function"
    },
    {
      "inputs": [
        {
          "internalType": "uint256",
          "name": "_feeBps",
          "type": "uint256"
        }
      ],
      "name": "setPlatformFee",
      "outputs": [],
      "stateMutability": "nonpayable",
      "type": "function"
    },
    {
      "inputs": [
        {
          "internalType": "address payable",
          "name": "_receiver",
          "type": "address"
        }
      ],
      "name": "setPlatformFeeReceiver",
      "outputs": [],
      "stateMutability": "nonpayable",
      "type": "function"
    },
    {
      "inputs": [
        {
          "internalType": "bytes4",
          "name": "interfaceId",
          "type": "bytes4"
        }
      ],
      "name": "supportsInterface",
      "outputs": [
        {
          "internalType": "bool",
          "name": "",
          "type": "bool"
        }
      ],
      "stateMutability": "pure",
      "type": "function"
    },
    {
      "inputs": [
        {
          "internalType": "address",
          "name": "newOwner",
          "type": "address"
        }
      ],
      "name": "transferOwnership",
      "outputs": [],
      "stateMutability": "nonpayable",
      "type": "function"
    }
  ],
  "bytecode": "0x610160346200027c57601f6200377638819003918201601f19168301916001600160401b039190828411858510176200026657808592604095865283396020948591810103126200027c57516001600160a01b039384821693918490036200027c578151926200006f8462000281565b600e8452818401946d4e46544d61726b6574706c61636560901b8652835196620000998862000281565b60018852838801603160f81b8152620000b2336200029d565b60018055620000c187620002e4565b97610120988952620000d38a620004c1565b97610140988952519020988960e0525190209161010098838a524660a052865193868501917f8b73c3c69bb8fe3d512ecc4cf759cc79239f7b179b0ffacaa9a75d522b39400f83528886015260608501524660808501523060a085015260a0845260c0840194848610908611176200026657848752835190206080523060c05260fa600955600a80546001600160a01b03191691909117905560005433911603620002265750503315620001d557506200018d336200029d565b51916130ff938462000677853960805184612dd8015260a05184612ea3015260c05184612da2015260e05184612e2701525183612e4d0152518261112b015251816111550152f35b608491519062461bcd60e51b82526004820152602660248201527f4f776e61626c653a206e6577206f776e657220697320746865207a65726f206160448201526564647265737360d01b6064820152fd5b6101047f4f776e61626c653a2063616c6c6572206973206e6f7420746865206f776e65729160649462461bcd60e51b85528060c483015260e48201520152fd5b634e487b7160e01b600052604160045260246000fd5b600080fd5b604081019081106001600160401b038211176200026657604052565b600080546001600160a01b039283166001600160a01b03198216811783559216907f8be0079c531659141344cd1fd0a4f28419497f9722a3daafe3b4186f6b6457e09080a3565b805160209081811015620003815750601f8251116200032057808251920151908083106200031157501790565b82600019910360031b1b161790565b90604051809263305a27a960e01b82528060048301528251908160248401526000935b82851062000367575050604492506000838284010152601f80199101168101030190fd5b848101820151868601604401529381019385935062000343565b906001600160401b0382116200026657600254926001938481811c91168015620004b6575b83821014620004a057601f811162000466575b5081601f8411600114620003fa5750928293918392600094620003ee575b50501b916000199060031b1c19161760025560ff90565b015192503880620003d7565b919083601f198116600260005284600020946000905b888383106200044b575050501062000431575b505050811b0160025560ff90565b015160001960f88460031b161c1916905538808062000423565b85870151885590960195948501948793509081019062000410565b600260005284601f84600020920160051c820191601f860160051c015b82811062000493575050620003b9565b6000815501859062000483565b634e487b7160e01b600052602260045260246000fd5b90607f1690620003a6565b8051602091908281101562000551575090601f825111620004f057808251920151908083106200031157501790565b90604051809263305a27a960e01b82528060048301528251908160248401526000935b82851062000537575050604492506000838284010152601f80199101168101030190fd5b848101820151868601604401529381019385935062000513565b6001600160401b03811162000266576003928354926001938481811c911680156200066b575b83821014620004a057601f811162000632575b5081601f8411600114620005c95750928293918392600094620005bd575b50501b9160001990841b1c191617905560ff90565b015192503880620005a8565b919083601f1981168760005284600020946000905b88838310620006175750505010620005fe575b505050811b01905560ff90565b015160001983861b60f8161c19169055388080620005f1565b858701518855909601959485019487935090810190620005de565b8560005284601f84600020920160051c820191601f860160051c015b8281106200065e5750506200058a565b600081550185906200064e565b90607f16906200057756fe608080604052600436101561001357600080fd5b600090813560e01c90816301ffc9a71461211657508063107a274a1461204f57806312e8e2c314611fef57806322dcd13e14611fd15780632d656ad714611fa8578063305a67a814611f055780634437b60b14611a7d5780634579268a146119545780635d4d98711461134057806365e002b0146113175780636c2c9c7d146112f9578063715018a61461129f57806379e644cb1461126e5780637ecebe001461123557806384b0196e146111155780638a72ea6a146110825780638da5cb5b1461105b578063b7a3c1da1461103d578063bc197c8114610fb4578063c128b23114610cb8578063c815729d146106eb578063de74e57b1461063f578063e340977a146105fa578063ef706adf1461050e578063f23a6e61146104b4578063f2fde38b146103ee5763f373def51461014a57600080fd5b6101203660031901126103eb57610160366123ac565b610104356001600160401b0381116103e757610180903690600401612365565b610188612b4f565b81516001600160a01b031633036103a2576101fb6101f3610210926101be60e0860151338852600660205260408820541461265b565b6101cd60a086015142106129ff565b6101dd6080860151341015612849565b6101ee6101e9866125ba565b612d79565b612cbf565b919091612ba5565b82516001600160a01b03918216911614612697565b61033961021e6008546127d0565b6008819055825160208401516040808601516060870151608088015160a089015160c08a015194516001600160a01b0395861698978616966007969195929492911661026986612210565b8886526020860197885260408601908152606086019182526080860192835260a0860193845260c0860194855260e08601998a5261010086019860018a528d52600560205260408d2095518655600186019760018060a01b03905116976001600160601b0360a01b9889825416179055600286019060018060a01b0390511688825416179055516003850155516004840155516005830155516006820155019260018060a01b039051169083541617825551151581549060ff60a01b90151560a01b169060ff60a01b1916179055565b33825260066020526040822061034f81546127d0565b9055600854815160208084015160409485015194519485526001600160a01b0390811694921692917fd7717a251aa6b58c031ecb17600f5fd443e3e40f6689d9c3ef687ce7f4b4e6169190a46001805580f35b60405162461bcd60e51b815260206004820152601b60248201527f4f6e6c792062757965722063616e20637265617465206f6666657200000000006044820152606490fd5b8280fd5b80fd5b50346103eb5760203660031901126103eb57610408612284565b610410612af7565b6001600160a01b0390811690811561046057600054826001600160601b0360a01b821617600055167f8be0079c531659141344cd1fd0a4f28419497f9722a3daafe3b4186f6b6457e0600080a380f35b60405162461bcd60e51b815260206004820152602660248201527f4f776e61626c653a206e6577206f776e657220697320746865207a65726f206160448201526564647265737360d01b6064820152608490fd5b50346103eb5760a03660031901126103eb576104ce612284565b506104d761229a565b506084356001600160401b03811161050a576104f7903690600401612365565b5060405163f23a6e6160e01b8152602090f35b5080fd5b50346103eb5760203660031901126103eb5760043561052b612b4f565b808252600560205281604081206005600782019182549261055160ff8560a01c16612a3b565b60018201546001600160a01b039081169490610578903387149081156105ed575b506129c2565b60ff60a01b19169055015490811580156105bb575b8333867f1f51377b3e685a0e2419f9bb4ba7c07ec54936353ba3d0fb3c6538dab67662228380a36001805580f35b83928392839283906105e4575bf1156105d7578138808061058d565b50604051903d90823e3d90fd5b506108fc6105c8565b8854163314905038610572565b50346103eb5760203660031901126103eb576004356001600160a01b0381169081900361050a57610629612af7565b6001600160601b0360a01b600a541617600a5580f35b50346103eb5760203660031901126103eb57604061016091600435815260046020522060ff81549160018060a01b038060018301541691816002820154166003820154600483015460058401549160068501549360086007870154960154976040519a8b5260208b015260408a01526060890152608088015260a087015260c086015260e08501528116610100840152818160a01c16151561012084015260a81c161515610140820152f35b50346103eb5760208060031936011261050a57600435610709612b4f565b80835260058252604083206007810161072860ff825460a01c16612a3b565b610737600683015442106129ff565b600482018054600195868211929188918415610b455760028701546003880154604051627eeac760e11b815233600482015260248101919091526001600160a01b03909116908281604481855afa908115610b3a578591610b02575b50836107a091101561278d565b60405163e985e9c560e01b8152336004820152306024820152908290829060449082905afa9081156109b1576107de928592610ad5575b5050612741565b6005860154926127106107f360095486612836565b0490839485838c879614610a45575b61080f90610814936128a9565b6128a9565b95156109c05760028801548a89015460038a015492546001600160a01b0391821692909116803b156109bc57604051637921219560e11b81523360048201526001600160a01b039390931660248401526044830193909352606482015260a06084820152600060a4820152908490829060c490829084905af19081156109b157849161099d575b50505b8281151580610989575b61095c575b50508215158061094a575b61092a575b5090508161090b575b5050805460ff60a01b191690558201546001600160a01b03169033907f4e0e306d1152ebbfd4d4055c0cb6f9d9c99c8b6427bd085ccb5e35d98850d2758580a4805580f35b80808061092394335af161091d6128b6565b5061297e565b38856108c6565b81806109429481935af161093c6128b6565b50612932565b3886816108bd565b506001600160a01b03811615156108b8565b600a54610982928291829182916001600160a01b03165af161097c6128b6565b506128e6565b38826108ad565b50600a546001600160a01b031615156108a8565b6109a6906121fd565b6103e757823861089b565b6040513d86823e3d90fd5b8680fd5b5060018060a01b0380600289015416908a890154166003890154823b15610a41576040516323b872dd60e01b81523360048201526001600160a01b0392909216602483015260448201529084908290606490829084905af19081156109b1578491610a2d575b505061089e565b610a36906121fd565b6103e7578238610a26565b8580fd5b505060018060a01b0360028a015416604060038b0154604482518094819363152a902d60e11b835260048301528660248301525afa908187918893610aa2575b50610a94575b50508583610802565b90965093508061080f610a8b565b909250610ac7915060403d604011610ace575b610abf8183612263565b81019061288c565b9138610a85565b503d610ab5565b610af49250803d10610afb575b610aec8183612263565b810190612729565b38806107d7565b503d610ae2565b809550838092503d8311610b33575b610b1b8183612263565b81010312610b2e5792518a939083610793565b600080fd5b503d610b11565b6040513d87823e3d90fd5b600287015460038801546040516331a9108f60e11b8152600481018290526001600160a01b0392831692908481602481875afa8015610cad578790610c77575b610b939150821633146126eb565b6040519163020604bf60e21b835260048301528382602481865afa918215610c6c578692610c35575b50163014908115610bd8575b50610bd39150612741565b6107de565b60405163e985e9c560e01b815233600482015230602482015291508290829060449082905afa9081156109b157610bd3928592610c18575b505038610bc8565b610c2e9250803d10610afb57610aec8183612263565b3880610c10565b9091508381813d8311610c65575b610c4d8183612263565b81010312610a4157610c5e906126d7565b9038610bbc565b503d610c43565b6040513d88823e3d90fd5b508481813d8311610ca6575b610c8d8183612263565b810103126109bc57610ca1610b93916126d7565b610b85565b503d610c83565b6040513d89823e3d90fd5b50346103eb57610cc7366121cb565b6007805492848160015b86811115610f375750848101808211610e65578210610f12575b5050610cf683612479565b91610d046040519384612263565b838352601f19610d1385612479565b01865b818110610efb575050859360015b8681111580610ef2575b15610ea757808852602060048152604089209060ff906008928381015490878460a893841c169182610e98575b82610e79575b5050610d7a575b50505050610d75906127d0565b610d24565b8b889a959a158015610e495750918391610d7596946040858e610e3f99975260048552209260405195610dac876121e1565b8454875260018060a01b03918260018701541690880152816002860154166040880152600385015460608801526004850154608088015260058501549460a09586890152600681015460c08901528c81015460e0890152015493849182166101008801521c1615156101208501521c161515610140820152610e2e8289612acd565b52610e398188612acd565b506127d0565b9590388080610d68565b94505050505095939095610e65576000190192610d75906127d0565b634e487b7160e01b88526011600452602488fd5b0154801591508115610e8e575b508738610d61565b9050421038610e86565b60068101544210159250610d5b565b6040805160208082528751818301819052818901938301918c5b828110610ece5784840385f35b9091928261016082610ee36001948a5161214e565b01960191019492919094610ec1565b50818610610d2e565b602090610f06612a7a565b82828801015201610d16565b9193509080821115610f2f57610f27916128a9565b913880610ceb565b505083610f27565b8088526004602052604088208560ff600883015460a81c169182610fa5575b82610f86575b5050610f71575b610f6c906127d0565b610cd1565b91610f7e610f6c916127d0565b929050610f63565b0154801591508115610f9b575b508538610f5c565b9050421038610f93565b60068101544210159250610f56565b50346103eb5760a03660031901126103eb57610fce612284565b50610fd761229a565b506001600160401b036044358181116103e757610ff8903690600401612490565b506064358181116103e757611011903690600401612490565b5060843590811161050a5761102a903690600401612365565b5060405163bc197c8160e01b8152602090f35b50346103eb57806003193601126103eb576020600854604051908152f35b50346103eb57806003193601126103eb57546040516001600160a01b039091168152602090f35b50346103eb5760203660031901126103eb57604061012091600435815260056020522060ff81549160018060a01b0380600183015416918160028201541660038201546004830154906005840154926007600686015495015496604051998a5260208a015260408901526060880152608087015260a086015260c0850152811660e084015260a01c161515610100820152f35b50346103eb57806003193601126103eb5761114f7f0000000000000000000000000000000000000000000000000000000000000000612ec9565b906111797f0000000000000000000000000000000000000000000000000000000000000000612ff3565b9060405190602090818301938385106001600160401b0386111761121f57928285936111d588966111c798604052858552604051988998600f60f81b8a5260e0858b015260e08a0190612439565b9088820360408a0152612439565b924660608801523060808801528460a088015286840360c088015251928381520193925b82811061120857505050500390f35b8351855286955093810193928101926001016111f9565b634e487b7160e01b600052604160045260246000fd5b50346103eb5760203660031901126103eb576020906040906001600160a01b0361125d612284565b168152600683522054604051908152f35b50346103eb576101403660031901126103eb5760206112976101e9611292366122b0565b6124ee565b604051908152f35b50346103eb57806003193601126103eb576112b8612af7565b600080546001600160a01b0319811682556001600160a01b03167f8be0079c531659141344cd1fd0a4f28419497f9722a3daafe3b4186f6b6457e08280a380f35b50346103eb57806003193601126103eb576020600754604051908152f35b50346103eb576101003660031901126103eb5760206112976101e961133b366123ac565b6125ba565b50346103eb576101603660031901126103eb5761135c366122b0565b610144356001600160401b0381116103e75761137c903690600401612365565b611384612b4f565b81516001600160a01b0316330361190f576113b1610120830151338552600660205260408520541461265b565b60a082015142106118d35760c082015180159081156118c9575b5015611891576101fb6101f36113e7926101ee6101e9866124ee565b61010081015115611719576020818101516040808401519051627eeac760e11b815233600482015260248101919091526001600160a01b039091169181604481855afa80156109b15784906116e5575b61144891506060840151111561278d565b60405163e985e9c560e01b815233600482015230602482015290602090829060449082905afa9081156116da5783916116bb575b501561166a575b61148e6007546127d0565b6007819055815160208301516040808501516060860151608087015160a088015160c089015160e08a01516101008b015196519998961515976001600160a01b039182169792969395939290821691166114e78b6121e1565b898b5260208b015260408a01526060890152608088015260a087015260c086015260e08501526101008401526101208301526001610140830152835260046020526101406040842091805183556008600184019360018060a01b03602084015116946001600160601b0360a01b95868254161790556002810160018060a01b0360408501511686825416179055606083015160038201556080830151600482015560a0830151600582015560c0830151600682015560e08301516007820155019260018060a01b0361010083015116908454161783556115e66101208201511515849081549060ff60a01b90151560a01b169060ff60a01b1916179055565b0151815460ff60a81b191690151560a81b60ff60a81b161790553382526006602052604082208054611617906127d0565b9055600754815160208084015160409485015194519485526001600160a01b0390811694921692917fef2afbd8c89b8f164dfea9c77e743729b6e2c6d55b35eeee446a5d39076571db9190a46001805580f35b60405162461bcd60e51b8152602060048201526024808201527f4d61726b6574706c616365206e6f7420617070726f76656420666f72204552436044820152633131353560e01b6064820152608490fd5b6116d4915060203d602011610afb57610aec8183612263565b3861147c565b6040513d85823e3d90fd5b506020813d602011611711575b816116ff60209383612263565b81010312610b2e576114489051611437565b3d91506116f2565b60018060a01b03602082015116604082018051604051906331a9108f60e11b82526004820152602081602481865afa8015610b3a578590611852575b61176a91506001600160a01b031633146126eb565b516040519063020604bf60e21b82526004820152602081602481855afa9081156109b1578491611814575b506001600160a01b0316301480156117b7575b6117b29150612741565b611483565b5060405163e985e9c560e01b815233600482015230602482015290602090829060449082905afa80156116da576117b29184916117f5575b506117a8565b61180e915060203d602011610afb57610aec8183612263565b386117ef565b90506020813d60201161184a575b8161182f60209383612263565b8101031261184657611840906126d7565b38611795565b8380fd5b3d9150611822565b506020813d602011611889575b8161186c60209383612263565b810103126118855761188061176a916126d7565b611755565b8480fd5b3d915061185f565b60405162461bcd60e51b815260206004820152601060248201526f496e76616c696420656e642074696d6560801b6044820152606490fd5b90504210386113cb565b60405162461bcd60e51b815260206004820152601460248201527353746172742074696d6520696e2066757475726560601b6044820152606490fd5b60405162461bcd60e51b815260206004820152601e60248201527f4f6e6c792073656c6c65722063616e20637265617465206c697374696e6700006044820152606490fd5b50346103eb5760203660031901126103eb5761012090604080519161197883612210565b80835280602084015280828401528060608401528060808401528060a08401528060c08401528060e0840152806101008094015260043581526005602052209080604051926119c684612210565b80549384815260018060a01b03918260018201541660208301908152836002830154166040840190815260038301546060850190815285600485015492608087019384528160058701549560a0890196875260ff600760068a01549960c08c019a8b5201549b8a8460e08f9d019c168c52019b60a01c1615158b526040519c8d52511660208c0152511660408a01525160608901525160808801525160a08701525160c0860152511660e084015251151590820152f35b50611a87366121cb565b611a8f612b4f565b81835260046020526040832060088101805492611ab160ff8560a81c166127f5565b60068301544210611eca5760078301548015908115611ec0575b5015611e895780151580611e7b575b15611e4357611aed816005850154612836565b93611afa85341015612849565b612710611b0960095487612836565b049087809160ff829160a01c16938415611dc8575b611b2c8461080f838c6128a9565b9415611d33576002880154600189015460038a01546001600160a01b0392831692909116823b15610a4157604051637921219560e11b81526001600160a01b0391909116600482015233602482015260448101919091526064810188905260a06084820152600060a4820152908490829060c490829084905af19081156109b1578491611d1f575b50505b8281151580611d0b575b611ce4575b505082151580611cd2575b611cb8575b50905081611c8f575b5050600483018054909190808210611c7d575050815460ff60a81b1916909155505b813411611c4c575b600101546040519182526001600160a01b03169133917f6fe65d1c462aabdd4f3dc9a173d56b80df8eb35daf18c5225b6274014869ccd690602090a46001805580f35b83808080611c5a86346128a9565b818115611c74575b3390f1611c09576040513d85823e3d90fd5b506108fc611c62565b611c889293506128a9565b9055611c01565b6001850154611cb1928291829182916001600160a01b03165af161091d6128b6565b3886611bdf565b8180611cca9481935af161093c6128b6565b388781611bd6565b506001600160a01b0381161515611bd1565b600a54611d04928291829182916001600160a01b03165af161097c6128b6565b3882611bc6565b50600a546001600160a01b03161515611bc1565b611d28906121fd565b6103e7578238611bb4565b6002880154600189015460038a015493945091926001600160a01b03928316928d9216803b156103e7576040516323b872dd60e01b81526001600160a01b0394909416600485015233602485015260448401919091528290606490829084905af18015611dbd57611da8575b50908991611bb7565b611db5909a91929a6121fd565b989038611d9f565b6040513d8d823e3d90fd5b60018060a01b0360028901541660408a604460038c01548351948593849263152a902d60e11b8452600484015260248301525afa908185918693611e20575b50611e14575b5050611b1e565b90945091503880611e0d565b909250611e3c915060403d604011610ace57610abf8183612263565b9138611e07565b60405162461bcd60e51b815260206004820152601060248201526f496e76616c6964207175616e7469747960801b6044820152606490fd5b506004830154811115611ada565b60405162461bcd60e51b815260206004820152600f60248201526e131a5cdd1a5b99c8195e1c1a5c9959608a1b6044820152606490fd5b9050421038611acb565b60405162461bcd60e51b8152602060048201526013602482015272131a5cdd1a5b99c81b9bdd081cdd185c9d1959606a1b6044820152606490fd5b50346103eb5760203660031901126103eb57600435611f22612b4f565b8082526004602052604082206008810190611f656001835492611f4a60ff8560a81c166127f5565b818060a01b039182910154163314908115611f9b57506129c2565b60ff60a81b1916905533907f8e25282255ab31897df2b0456bb993ac7f84d376861aefd84901d2d63a7428a28380a36001805580f35b8654163314905038610572565b50346103eb57806003193601126103eb57600a546040516001600160a01b039091168152602090f35b50346103eb57806003193601126103eb576020600954604051908152f35b50346103eb5760203660031901126103eb5760043561200c612af7565b6103e8811161201b5760095580f35b60405162461bcd60e51b815260206004820152600c60248201526b08ccaca40e8dede40d0d2ced60a31b6044820152606490fd5b50346103eb5760203660031901126103eb5760406101609161206f612a7a565b50600435815260046020522060ff6040519161208a836121e1565b80548352600860018060a01b03918260018201541660208601528260028201541660408601526003810154606086015260048101546080860152600581015460a0860152600681015460c0860152600781015460e08601520154908116610100840152818160a01c16151561012084015260a81c161515610140820152612114604051809261214e565bf35b90503461050a57602036600319011261050a5760043563ffffffff60e01b81168091036103e757630271189760e51b14815260209150f35b8051825260018060a01b03806020830151166020840152806040830151166040840152606082015160608401526080820151608084015260a082015160a084015260c082015160c084015260e082015160e08401526101009081830151169083015261012080820151151590830152610140809101511515910152565b6040906003190112610b2e576004359060243590565b61016081019081106001600160401b0382111761121f57604052565b6001600160401b03811161121f57604052565b61012081019081106001600160401b0382111761121f57604052565b61014081019081106001600160401b0382111761121f57604052565b604081019081106001600160401b0382111761121f57604052565b90601f801991011681019081106001600160401b0382111761121f57604052565b600435906001600160a01b0382168203610b2e57565b602435906001600160a01b0382168203610b2e57565b610140906003190112610b2e57604051906122ca8261222c565b816001600160a01b036004358181168103610b2e5782526024358181168103610b2e57602083015260443560408301526064356060830152608435608083015260a43560a083015260c43560c083015260e4359081168103610b2e5760e0820152610104358015158103610b2e5761010082015261012061012435910152565b6001600160401b03811161121f57601f01601f191660200190565b81601f82011215610b2e5780359061237c8261234a565b9261238a6040519485612263565b82845260208383010111610b2e57816000926020809301838601378301015290565b9061010080926003190112610b2e576040519182018281106001600160401b0382111761121f57604052816001600160a01b036004358181168103610b2e5782526024358181168103610b2e57602083015260443560408301526064356060830152608435608083015260a43560a083015260c4359081168103610b2e5760c082015260e060e435910152565b919082519283825260005b848110612465575050826000602080949584010152601f8019910116010190565b602081830181015184830182015201612444565b6001600160401b03811161121f5760051b60200190565b81601f82011215610b2e578035916124a783612479565b926124b56040519485612263565b808452602092838086019260051b820101928311610b2e578301905b8282106124df575050505090565b813581529083019083016124d1565b7fc69771b946e834cc69a6ab12da07e8737892a466591758eb02b803da07bdc2df9060018060a01b038082511691816020820151169160408201519160608101519160808201519260a083015160c08401519260e08501511694610100928386015115159761012080970151996040519b60208d019d8e5260408d015260608c015260808b015260a08a015260c089015260e08801528601528401526101408301526101609081830152815261018081018181106001600160401b0382111761121f5760405251902090565b60018060a01b039081815116918060208301511691604081015191606082015160808301519060e060a08501519360c086015116940151946040519660208801987fc9cd1730134817b090a71ecd09ad9b86f7d4de0ef162e8b5097f38906044d8908a5260408901526060880152608087015260a086015260c085015260e0840152610100830152610120908183015281526126558161222c565b51902090565b1561266257565b60405162461bcd60e51b815260206004820152600d60248201526c496e76616c6964206e6f6e636560981b6044820152606490fd5b1561269e57565b60405162461bcd60e51b8152602060048201526011602482015270496e76616c6964207369676e617475726560781b6044820152606490fd5b51906001600160a01b0382168203610b2e57565b156126f257565b60405162461bcd60e51b815260206004820152600f60248201526e2737ba103a37b5b2b71037bbb732b960891b6044820152606490fd5b90816020910312610b2e57518015158103610b2e5790565b1561274857565b60405162461bcd60e51b815260206004820152601860248201527f4d61726b6574706c616365206e6f7420617070726f76656400000000000000006044820152606490fd5b1561279457565b60405162461bcd60e51b8152602060048201526014602482015273496e73756666696369656e742062616c616e636560601b6044820152606490fd5b60001981146127df5760010190565b634e487b7160e01b600052601160045260246000fd5b156127fc57565b60405162461bcd60e51b81526020600482015260126024820152714c697374696e67206e6f742061637469766560701b6044820152606490fd5b818102929181159184041417156127df57565b1561285057565b60405162461bcd60e51b8152602060048201526014602482015273125b9cdd59999a58da595b9d081c185e5b595b9d60621b6044820152606490fd5b9190826040910312610b2e5760206128a3836126d7565b92015190565b919082039182116127df57565b3d156128e1573d906128c78261234a565b916128d56040519384612263565b82523d6000602084013e565b606090565b156128ed57565b60405162461bcd60e51b815260206004820152601c60248201527f506c6174666f726d20666565207472616e73666572206661696c6564000000006044820152606490fd5b1561293957565b60405162461bcd60e51b815260206004820152601760248201527f526f79616c7479207472616e73666572206661696c65640000000000000000006044820152606490fd5b1561298557565b60405162461bcd60e51b815260206004820152601560248201527414d95b1b195c881c185e5b595b9d0819985a5b1959605a1b6044820152606490fd5b156129c957565b60405162461bcd60e51b815260206004820152600e60248201526d139bdd08185d5d1a1bdc9a5e995960921b6044820152606490fd5b15612a0657565b60405162461bcd60e51b815260206004820152600d60248201526c13d999995c88195e1c1a5c9959609a1b6044820152606490fd5b15612a4257565b60405162461bcd60e51b815260206004820152601060248201526f4f66666572206e6f742061637469766560801b6044820152606490fd5b60405190612a87826121e1565b816101406000918281528260208201528260408201528260608201528260808201528260a08201528260c08201528260e082015282610100820152826101208201520152565b8051821015612ae15760209160051b010190565b634e487b7160e01b600052603260045260246000fd5b6000546001600160a01b03163303612b0b57565b606460405162461bcd60e51b815260206004820152602060248201527f4f776e61626c653a2063616c6c6572206973206e6f7420746865206f776e65726044820152fd5b600260015414612b60576002600155565b60405162461bcd60e51b815260206004820152601f60248201527f5265656e7472616e637947756172643a207265656e7472616e742063616c6c006044820152606490fd5b6005811015612ca95780612bb65750565b60018103612c035760405162461bcd60e51b815260206004820152601860248201527f45434453413a20696e76616c6964207369676e617475726500000000000000006044820152606490fd5b60028103612c505760405162461bcd60e51b815260206004820152601f60248201527f45434453413a20696e76616c6964207369676e6174757265206c656e677468006044820152606490fd5b600314612c5957565b60405162461bcd60e51b815260206004820152602260248201527f45434453413a20696e76616c6964207369676e6174757265202773272076616c604482015261756560f01b6064820152608490fd5b634e487b7160e01b600052602160045260246000fd5b906041815114600014612ced57612ce9916020820151906060604084015193015160001a90612cf7565b9091565b5050600090600290565b9291907f7fffffffffffffffffffffffffffffff5d576e7357a4501ddfe92f46681b20a08311612d6d5791608094939160ff602094604051948552168484015260408301526060820152600093849182805260015afa156105d75781516001600160a01b03811615612d67579190565b50600190565b50505050600090600390565b604290612d84612d9f565b906040519161190160f01b8352600283015260228201522090565b307f00000000000000000000000000000000000000000000000000000000000000006001600160a01b03161480612ea0575b15612dfa577f000000000000000000000000000000000000000000000000000000000000000090565b60405160208101907f8b73c3c69bb8fe3d512ecc4cf759cc79239f7b179b0ffacaa9a75d522b39400f82527f000000000000000000000000000000000000000000000000000000000000000060408201527f000000000000000000000000000000000000000000000000000000000000000060608201524660808201523060a082015260a0815260c081018181106001600160401b0382111761121f5760405251902090565b507f00000000000000000000000000000000000000000000000000000000000000004614612dd1565b60ff8114612f075760ff811690601f8211612ef55760405191612eeb83612248565b8252602082015290565b604051632cd44ac360e21b8152600490fd5b50604051600060025490600182811c90808416938415612fe9575b6020948584108114612fd55783875286949392918115612fb55750600114612f56575b5050612f5392500382612263565b90565b9093915060026000527f405787fa12a823e0f2b7631cc41b3ba8828b3321ca811111fa75cd3aa3bb5ace936000915b818310612f9d575050612f5393508201013880612f45565b85548784018501529485019486945091830191612f85565b915050612f5394925060ff191682840152151560051b8201013880612f45565b634e487b7160e01b85526022600452602485fd5b91607f1691612f22565b60ff81146130155760ff811690601f8211612ef55760405191612eeb83612248565b50604051600060035490600182811c908084169384156130bf575b6020948584108114612fd55783875286949392918115612fb55750600114613060575050612f5392500382612263565b9093915060036000527fc2575a0e9e593c00f959f8c92f12db2869c3395a3b0502d05e2516446f71f85b936000915b8183106130a7575050612f5393508201013880612f45565b8554878401850152948501948694509183019161308f565b91607f169161303056fea2646970667358221220aad87327dba3915ba713434e774cd26d526459cb452ebbb2dae39c9f41e17ae264736f6c63430008130033",
  "linkReferences": {},
  "deployedLinkReferences": {}
}