{
  "_format": "hh-sol-artifact-1",
  "contractName": "NFTMarketplace",
  "sourceName": "contracts/NFTMarketplace.sol",
  "abi": [
    {
      "inputs": [
        {
          "internalType": "address",
          "name": "_vendorNFT",
          "type": "address"
        },
        {
          "internalType": "address payable",
          "name": "_owner",
          "type": "address"
        }
      ],
      "stateMutability": "nonpayable",
      "type": "constructor"
    },
    {
      "anonymous": false,
      "inputs": [
        {
          "indexed": false,
          "internalType": "uint256",
          "name": "newFee",
          "type": "uint256"
        }
      ],
      "name": "ListingFeeUpdated",
      "type": "event"
    },
    {
      "anonymous": false,
      "inputs": [
        {
          "indexed": true,
          "internalType": "address",
          "name": "buyer",
          "type": "address"
        },
        {
          "indexed": false,
          "internalType": "uint256",
          "name": "tokenId",
          "type": "uint256"
        },
        {
          "indexed": false,
          "internalType": "uint256",
          "name": "price",
          "type": "uint256"
        }
      ],
      "name": "NFTBought",
      "type": "event"
    },
    {
      "anonymous": false,
      "inputs": [
        {
          "indexed": true,
          "internalType": "uint256",
          "name": "itemId",
          "type": "uint256"
        },
        {
          "indexed": false,
          "internalType": "address",
          "name": "seller",
          "type": "address"
        }
      ],
      "name": "NFTDelisted",
      "type": "event"
    },
    {
      "anonymous": false,
      "inputs": [
        {
          "indexed": true,
          "internalType": "address",
          "name": "nft",
          "type": "address"
        },
        {
          "indexed": true,
          "internalType": "uint256",
          "name": "tokenId",
          "type": "uint256"
        },
        {
          "indexed": false,
          "internalType": "address",
          "name": "seller",
          "type": "address"
        },
        {
          "indexed": false,
          "internalType": "address",
          "name": "buyer",
          "type": "address"
        },
        {
          "indexed": false,
          "internalType": "uint256",
          "name": "amount",
          "type": "uint256"
        }
      ],
      "name": "OfferAccepted",
      "type": "event"
    },
    {
      "anonymous": false,
      "inputs": [
        {
          "indexed": true,
          "internalType": "address",
          "name": "nft",
          "type": "address"
        },
        {
          "indexed": true,
          "internalType": "uint256",
          "name": "tokenId",
          "type": "uint256"
        },
        {
          "indexed": false,
          "internalType": "address",
          "name": "buyer",
          "type": "address"
        }
      ],
      "name": "OfferCanceled",
      "type": "event"
    },
    {
      "anonymous": false,
      "inputs": [
        {
          "indexed": true,
          "internalType": "address",
          "name": "nft",
          "type": "address"
        },
        {
          "indexed": true,
          "internalType": "uint256",
          "name": "tokenId",
          "type": "uint256"
        },
        {
          "indexed": false,
          "internalType": "address",
          "name": "buyer",
          "type": "address"
        },
        {
          "indexed": false,
          "internalType": "uint256",
          "name": "amount",
          "type": "uint256"
        }
      ],
      "name": "OfferEdited",
      "type": "event"
    },
    {
      "anonymous": false,
      "inputs": [
        {
          "indexed": true,
          "internalType": "address",
          "name": "nft",
          "type": "address"
        },
        {
          "indexed": true,
          "internalType": "uint256",
          "name": "tokenId",
          "type": "uint256"
        },
        {
          "indexed": false,
          "internalType": "address",
          "name": "buyer",
          "type": "address"
        },
        {
          "indexed": false,
          "internalType": "uint256",
          "name": "amount",
          "type": "uint256"
        }
      ],
      "name": "OfferPlaced",
      "type": "event"
    },
    {
      "anonymous": false,
      "inputs": [
        {
          "indexed": true,
          "internalType": "address",
          "name": "user",
          "type": "address"
        },
        {
          "indexed": false,
          "internalType": "uint256",
          "name": "newTotalPoints",
          "type": "uint256"
        }
      ],
      "name": "PointsUpdated",
      "type": "event"
    },
    {
      "anonymous": false,
      "inputs": [
        {
          "indexed": true,
          "internalType": "uint256",
          "name": "tokenId",
          "type": "uint256"
        },
        {
          "indexed": false,
          "internalType": "address",
          "name": "owner",
          "type": "address"
        },
        {
          "indexed": false,
          "internalType": "address",
          "name": "seller",
          "type": "address"
        },
        {
          "indexed": false,
          "internalType": "uint256",
          "name": "price",
          "type": "uint256"
        },
        {
          "indexed": false,
          "internalType": "bool",
          "name": "currentlyListed",
          "type": "bool"
        }
      ],
      "name": "TokenListedSuccess",
      "type": "event"
    },
    {
      "inputs": [
        {
          "internalType": "address",
          "name": "nftContract",
          "type": "address"
        },
        {
          "internalType": "uint256",
          "name": "itemId",
          "type": "uint256"
        },
        {
          "internalType": "uint256",
          "name": "tokenId",
          "type": "uint256"
        }
      ],
      "name": "acceptOffer",
      "outputs": [],
      "stateMutability": "nonpayable",
      "type": "function"
    },
    {
      "inputs": [
        {
          "internalType": "address",
          "name": "nftContract",
          "type": "address"
        },
        {
          "internalType": "uint256",
          "name": "itemId",
          "type": "uint256"
        }
      ],
      "name": "buyNFT",
      "outputs": [],
      "stateMutability": "payable",
      "type": "function"
    },
    {
      "inputs": [
        {
          "internalType": "address",
          "name": "buyer",
          "type": "address"
        },
        {
          "internalType": "uint256",
          "name": "itemId",
          "type": "uint256"
        }
      ],
      "name": "buyNFTWithOffchainPayment",
      "outputs": [],
      "stateMutability": "payable",
      "type": "function"
    },
    {
      "inputs": [
        {
          "internalType": "address",
          "name": "nftCollection",
          "type": "address"
        },
        {
          "internalType": "uint256",
          "name": "offerId",
          "type": "uint256"
        }
      ],
      "name": "cancelOffer",
      "outputs": [],
      "stateMutability": "nonpayable",
      "type": "function"
    },
    {
      "inputs": [
        {
          "internalType": "address",
          "name": "",
          "type": "address"
        },
        {
          "internalType": "uint256",
          "name": "",
          "type": "uint256"
        }
      ],
      "name": "collectionOffers",
      "outputs": [
        {
          "internalType": "uint256",
          "name": "offerId",
          "type": "uint256"
        },
        {
          "internalType": "address",
          "name": "buyer",
          "type": "address"
        },
        {
          "internalType": "uint256",
          "name": "amount",
          "type": "uint256"
        }
      ],
      "stateMutability": "view",
      "type": "function"
    },
    {
      "inputs": [
        {
          "internalType": "uint256",
          "name": "itemId",
          "type": "uint256"
        }
      ],
      "name": "delistNFT",
      "outputs": [],
      "stateMutability": "nonpayable",
      "type": "function"
    },
    {
      "inputs": [
        {
          "internalType": "uint256",
          "name": "itemId",
          "type": "uint256"
        },
        {
          "internalType": "uint256",
          "name": "newPrice",
          "type": "uint256"
        }
      ],
      "name": "editNftPrice",
      "outputs": [],
      "stateMutability": "nonpayable",
      "type": "function"
    },
    {
      "inputs": [
        {
          "internalType": "address",
          "name": "nftCollection",
          "type": "address"
        },
        {
          "internalType": "uint256",
          "name": "offerId",
          "type": "uint256"
        }
      ],
      "name": "editOffer",
      "outputs": [],
      "stateMutability": "payable",
      "type": "function"
    },
    {
      "inputs": [
        {
          "internalType": "address",
          "name": "",
          "type": "address"
        }
      ],
      "name": "escrowBalance",
      "outputs": [
        {
          "internalType": "uint256",
          "name": "",
          "type": "uint256"
        }
      ],
      "stateMutability": "view",
      "type": "function"
    },
    {
      "inputs": [],
      "name": "getActiveListings",
      "outputs": [
        {
          "components": [
            {
              "internalType": "uint256",
              "name": "itemId",
              "type": "uint256"
            },
            {
              "internalType": "address",
              "name": "nftContract",
              "type": "address"
            },
            {
              "internalType": "uint256",
              "name": "tokenId",
              "type": "uint256"
            },
            {
              "internalType": "address payable",
              "name": "owner",
              "type": "address"
            },
            {
              "internalType": "address payable",
              "name": "seller",
              "type": "address"
            },
            {
              "internalType": "uint256",
              "name": "price",
              "type": "uint256"
            },
            {
              "internalType": "bool",
              "name": "currentlyListed",
              "type": "bool"
            }
          ],
          "internalType": "struct NFTMarketplace.ListedToken[]",
          "name": "",
          "type": "tuple[]"
        }
      ],
      "stateMutability": "view",
      "type": "function"
    },
    {
      "inputs": [],
      "name": "getAllListings",
      "outputs": [
        {
          "components": [
            {
              "internalType": "uint256",
              "name": "itemId",
              "type": "uint256"
            },
            {
              "internalType": "address",
              "name": "nftContract",
              "type": "address"
            },
            {
              "internalType": "uint256",
              "name": "tokenId",
              "type": "uint256"
            },
            {
              "internalType": "address payable",
              "name": "owner",
              "type": "address"
            },
            {
              "internalType": "address payable",
              "name": "seller",
              "type": "address"
            },
            {
              "internalType": "uint256",
              "name": "price",
              "type": "uint256"
            },
            {
              "internalType": "bool",
              "name": "currentlyListed",
              "type": "bool"
            }
          ],
          "internalType": "struct NFTMarketplace.ListedToken[]",
          "name": "",
          "type": "tuple[]"
        }
      ],
      "stateMutability": "view",
      "type": "function"
    },
    {
      "inputs": [],
      "name": "getListingFee",
      "outputs": [
        {
          "internalType": "uint256",
          "name": "",
          "type": "uint256"
        }
      ],
      "stateMutability": "view",
      "type": "function"
    },
    {
      "inputs": [],
      "name": "getMyNFTs",
      "outputs": [
        {
          "components": [
            {
              "internalType": "uint256",
              "name": "itemId",
              "type": "uint256"
            },
            {
              "internalType": "address",
              "name": "nftContract",
              "type": "address"
            },
            {
              "internalType": "uint256",
              "name": "tokenId",
              "type": "uint256"
            },
            {
              "internalType": "address payable",
              "name": "owner",
              "type": "address"
            },
            {
              "internalType": "address payable",
              "name": "seller",
              "type": "address"
            },
            {
              "internalType": "uint256",
              "name": "price",
              "type": "uint256"
            },
            {
              "internalType": "bool",
              "name": "currentlyListed",
              "type": "bool"
            }
          ],
          "internalType": "struct NFTMarketplace.ListedToken[]",
          "name": "",
          "type": "tuple[]"
        }
      ],
      "stateMutability": "view",
      "type": "function"
    },
    {
      "inputs": [
        {
          "internalType": "uint256",
          "name": "itemId",
          "type": "uint256"
        }
      ],
      "name": "getNFTById",
      "outputs": [
        {
          "internalType": "uint256",
          "name": "tokenId",
          "type": "uint256"
        },
        {
          "internalType": "address",
          "name": "owner_",
          "type": "address"
        },
        {
          "internalType": "address",
          "name": "seller",
          "type": "address"
        },
        {
          "internalType": "uint256",
          "name": "price",
          "type": "uint256"
        },
        {
          "internalType": "string",
          "name": "uri",
          "type": "string"
        },
        {
          "internalType": "bool",
          "name": "currentlyListed",
          "type": "bool"
        }
      ],
      "stateMutability": "view",
      "type": "function"
    },
    {
      "inputs": [
        {
          "internalType": "address",
          "name": "nftContract",
          "type": "address"
        }
      ],
      "name": "getOffers",
      "outputs": [
        {
          "components": [
            {
              "internalType": "uint256",
              "name": "offerId",
              "type": "uint256"
            },
            {
              "internalType": "address",
              "name": "buyer",
              "type": "address"
            },
            {
              "internalType": "uint256",
              "name": "amount",
              "type": "uint256"
            }
          ],
          "internalType": "struct NFTMarketplace.Offer[]",
          "name": "",
          "type": "tuple[]"
        }
      ],
      "stateMutability": "view",
      "type": "function"
    },
    {
      "inputs": [
        {
          "internalType": "address",
          "name": "user",
          "type": "address"
        }
      ],
      "name": "getUserStatus",
      "outputs": [
        {
          "internalType": "uint256",
          "name": "points",
          "type": "uint256"
        },
        {
          "internalType": "bool",
          "name": "eligible",
          "type": "bool"
        }
      ],
      "stateMutability": "view",
      "type": "function"
    },
    {
      "inputs": [
        {
          "internalType": "address",
          "name": "user",
          "type": "address"
        }
      ],
      "name": "isEligibleForAirdrop",
      "outputs": [
        {
          "internalType": "bool",
          "name": "",
          "type": "bool"
        }
      ],
      "stateMutability": "view",
      "type": "function"
    },
    {
      "inputs": [
        {
          "internalType": "address",
          "name": "nftContract",
          "type": "address"
        },
        {
          "internalType": "uint256",
          "name": "tokenId",
          "type": "uint256"
        },
        {
          "internalType": "uint256",
          "name": "price",
          "type": "uint256"
        }
      ],
      "name": "listNFT",
      "outputs": [],
      "stateMutability": "payable",
      "type": "function"
    },
    {
      "inputs": [],
      "name": "listingfee",
      "outputs": [
        {
          "internalType": "uint256",
          "name": "",
          "type": "uint256"
        }
      ],
      "stateMutability": "view",
      "type": "function"
    },
    {
      "inputs": [
        {
          "internalType": "address",
          "name": "",
          "type": "address"
        },
        {
          "internalType": "uint256",
          "name": "",
          "type": "uint256"
        },
        {
          "internalType": "uint256",
          "name": "",
          "type": "uint256"
        }
      ],
      "name": "nftOffers",
      "outputs": [
        {
          "internalType": "uint256",
          "name": "offerId",
          "type": "uint256"
        },
        {
          "internalType": "address",
          "name": "buyer",
          "type": "address"
        },
        {
          "internalType": "uint256",
          "name": "amount",
          "type": "uint256"
        }
      ],
      "stateMutability": "view",
      "type": "function"
    },
    {
      "inputs": [
        {
          "internalType": "address",
          "name": "",
          "type": "address"
        },
        {
          "internalType": "uint256",
          "name": "",
          "type": "uint256"
        }
      ],
      "name": "offerBalances",
      "outputs": [
        {
          "internalType": "uint256",
          "name": "",
          "type": "uint256"
        }
      ],
      "stateMutability": "view",
      "type": "function"
    },
    {
      "inputs": [
        {
          "internalType": "address",
          "name": "nftCollection",
          "type": "address"
        }
      ],
      "name": "placeOffer",
      "outputs": [],
      "stateMutability": "payable",
      "type": "function"
    },
    {
      "inputs": [],
      "name": "pointThreshold",
      "outputs": [
        {
          "internalType": "uint256",
          "name": "",
          "type": "uint256"
        }
      ],
      "stateMutability": "view",
      "type": "function"
    },
    {
      "inputs": [],
      "name": "pointsPerTransaction",
      "outputs": [
        {
          "internalType": "uint256",
          "name": "",
          "type": "uint256"
        }
      ],
      "stateMutability": "view",
      "type": "function"
    },
    {
      "inputs": [
        {
          "internalType": "uint256",
          "name": "newThreshold",
          "type": "uint256"
        }
      ],
      "name": "setPointThreshold",
      "outputs": [],
      "stateMutability": "nonpayable",
      "type": "function"
    },
    {
      "inputs": [
        {
          "internalType": "uint256",
          "name": "newPoints",
          "type": "uint256"
        }
      ],
      "name": "setPointsPerTransaction",
      "outputs": [],
      "stateMutability": "nonpayable",
      "type": "function"
    },
    {
      "inputs": [
        {
          "internalType": "address",
          "name": "",
          "type": "address"
        }
      ],
      "name": "transactionCount",
      "outputs": [
        {
          "internalType": "uint256",
          "name": "",
          "type": "uint256"
        }
      ],
      "stateMutability": "view",
      "type": "function"
    },
    {
      "inputs": [
        {
          "internalType": "uint256",
          "name": "_listingFee",
          "type": "uint256"
        }
      ],
      "name": "updateListingFee",
      "outputs": [],
      "stateMutability": "nonpayable",
      "type": "function"
    },
    {
      "inputs": [],
      "name": "platformFeeBps",
      "outputs": [
        {
          "internalType": "uint256",
          "name": "",
          "type": "uint256"
        }
      ],
      "stateMutability": "view",
      "type": "function"
    },
    {
      "inputs": [],
      "name": "platformFeeReceiver",
      "outputs": [
        {
          "internalType": "address payable",
          "name": "",
          "type": "address"
        }
      ],
      "stateMutability": "view",
      "type": "function"
    },
    {
      "inputs": [
        {
          "internalType": "uint256",
          "name": "_feeBps",
          "type": "uint256"
        },
        {
          "internalType": "address payable",
          "name": "_receiver",
          "type": "address"
        }
      ],
      "name": "setPlatformFeeAndReceiver",
      "outputs": [],
      "stateMutability": "nonpayable",
      "type": "function"
    },
    {
      "inputs": [
        {
          "internalType": "address",
          "name": "",
          "type": "address"
        }
      ],
      "name": "userPoints",
      "outputs": [
        {
          "internalType": "uint256",
          "name": "",
          "type": "uint256"
        }
      ],
      "stateMutability": "view",
      "type": "function"
    },
    {
      "inputs": [],
      "name": "vendorNFT",
      "outputs": [
        {
          "internalType": "contract VendorNFT",
          "name": "",
          "type": "address"
        }
      ],
      "stateMutability": "view",
      "type": "function"
    },
    {
      "inputs": [],
      "name": "withdraw",
      "outputs": [],
      "stateMutability": "nonpayable",
      "type": "function"
    }
  ],
  "bytecode": "0x60a0604052662386f26fc10000600455600a60055560646006553480156200002657600080fd5b506040516200302f3803806200302f83398101604081905262000049916200008d565b6001600081905580546001600160a01b0319166001600160a01b0393841617905516608052620000cc565b6001600160a01b03811681146200008a57600080fd5b50565b60008060408385031215620000a157600080fd5b8251620000ae8162000074565b6020840151909250620000c18162000074565b809150509250929050565b608051612f1662000119600039600081816106e301528181610fe6015281816110300152818161108601528181611346015281816120ec015281816125f301526127f40152612f166000f3fe6080604052600436106101d85760003560e01c80637495c6ac11610102578063b8fe6abe11610095578063ea0d5dcd11610064578063ea0d5dcd1461058f578063f50ddbc7146105e3578063f63195eb14610610578063f79d91ae1461062357600080fd5b8063b8fe6abe146104ed578063cb917b9c14610502578063d9a98e2914610522578063e9d1c5981461054257600080fd5b8063a82ba76f116100d1578063a82ba76f1461049c578063ad05f1b4146104af578063ae73ccec146104c2578063b0adb220146104d757600080fd5b80637495c6ac1461040857806387c35bc01461042857806399be33751461043d578063a168b8051461046a57600080fd5b80633c6fc8171161017a5780634c5dbe2f116101495780634c5dbe2f146103615780634f0b0fed1461039957806355af6353146103b9578063629cb2e4146103e657600080fd5b80633c6fc817146102f95780633ccfd60b1461031957806341a25f531461032e578063434bc4b71461034e57600080fd5b80631d6985a2116101b65780631d6985a21461026b57806325383e45146102a35780632d86c000146102b657806339c6a808146102e357600080fd5b806304287a12146101dd578063058a56ac146102065780631ba98c5214610228575b600080fd5b3480156101e957600080fd5b506101f360055481565b6040519081526020015b60405180910390f35b34801561021257600080fd5b50610226610221366004612a6e565b610643565b005b34801561023457600080fd5b50610248610243366004612a9a565b6109ae565b604080519384526001600160a01b039092166020840152908201526060016101fd565b34801561027757600080fd5b506101f3610286366004612a6e565b600f60209081526000928352604080842090915290825290205481565b6102266102b1366004612acf565b610a08565b3480156102c257600080fd5b506102d66102d1366004612acf565b610b52565b6040516101fd9190612af3565b3480156102ef57600080fd5b506101f360045481565b34801561030557600080fd5b50610226610314366004612a9a565b610bea565b34801561032557600080fd5b50610226610fdb565b34801561033a57600080fd5b50610226610349366004612b55565b61107b565b61022661035c366004612a6e565b6110c8565b34801561036d57600080fd5b50600154610381906001600160a01b031681565b6040516001600160a01b0390911681526020016101fd565b3480156103a557600080fd5b506102266103b4366004612b55565b61133b565b3480156103c557600080fd5b506101f36103d4366004612acf565b600e6020526000908152604090205481565b3480156103f257600080fd5b506103fb611388565b6040516101fd9190612b6e565b34801561041457600080fd5b50610248610423366004612a6e565b6115b1565b34801561043457600080fd5b506103fb6115fd565b34801561044957600080fd5b506101f3610458366004612acf565b60086020526000908152604090205481565b34801561047657600080fd5b5061048a610485366004612b55565b61178c565b6040516101fd96959493929190612c19565b6102266104aa366004612a6e565b61191b565b6102266104bd366004612a9a565b611b4d565b3480156104ce57600080fd5b506103fb612206565b3480156104e357600080fd5b506101f360065481565b3480156104f957600080fd5b506004546101f3565b34801561050e57600080fd5b5061022661051d366004612b55565b61232b565b34801561052e57600080fd5b5061022661053d366004612c7c565b61249b565b34801561054e57600080fd5b5061057f61055d366004612acf565b6006546001600160a01b03909116600090815260076020526040902054101590565b60405190151581526020016101fd565b34801561059b57600080fd5b506105ce6105aa366004612acf565b6001600160a01b031660009081526007602052604090205460065490919082101590565b604080519283529015156020830152016101fd565b3480156105ef57600080fd5b506101f36105fe366004612acf565b60076020526000908152604090205481565b61022661061e366004612a6e565b6125e8565b34801561062f57600080fd5b5061022661063e366004612b55565b6127f2565b61064b61291b565b6001600160a01b0382166000908152600b60205260408120905b8154811015610965578282828154811061068157610681612c9e565b9060005260206000209060030201600001540361095357336001600160a01b03168282815481106106b4576106b4612c9e565b60009182526020909120600160039092020101546001600160a01b031614806107055750336001600160a01b037f000000000000000000000000000000000000000000000000000000000000000016145b6107475760405162461bcd60e51b815260206004820152600e60248201526d139bdd08185d5d1a1bdc9a5e995960921b60448201526064015b60405180910390fd5b336000908152600f60209081526040808320868452909152902054806107a45760405162461bcd60e51b8152602060048201526012602482015271139bc8199d5b991cc81d1bc81c99599d5b9960721b604482015260640161073e565b825483906107b490600190612cca565b815481106107c4576107c4612c9e565b90600052602060002090600302018383815481106107e4576107e4612c9e565b60009182526020909120825460039092020190815560018083015490820180546001600160a01b0319166001600160a01b03909216919091179055600291820154910155825483908061083957610839612ce3565b60008281526020808220600360001994909401938402018281556001810180546001600160a01b03191690556002018290559190925533808352600f82526040808420888552909252818320839055905183908381818185875af1925050503d80600081146108c4576040519150601f19603f3d011682016040523d82523d6000602084013e6108c9565b606091505b505090508061090a5760405162461bcd60e51b815260206004820152600d60248201526c1499599d5b990819985a5b1959609a1b604482015260640161073e565b60405133815285906001600160a01b038816907f2067c3c1b93d59a0414fb205a0e71a832980282ff4ebd1e51cf3ac0a3c6c34d09060200160405180910390a3505050506109a0565b8061095d81612cf9565b915050610665565b5060405162461bcd60e51b815260206004820152600f60248201526e13d999995c881b9bdd08199bdd5b99608a1b604482015260640161073e565b6109aa6001600055565b5050565b600960205282600052604060002060205281600052604060002081815481106109d657600080fd5b60009182526020909120600390910201805460018201546002909201549094506001600160a01b039091169250905083565b60003411610a675760405162461bcd60e51b815260206004820152602660248201527f4f6666657220616d6f756e74206d7573742062652067726561746572207468616044820152656e207a65726f60d01b606482015260840161073e565b6001600160a01b0381166000908152600b60205260408120600a80549192610a8e83612cf9565b909155505060408051606081018252600a8054825233602080840182815234858701818152885460018082018b5560008b815286812099516003909302909901918255935193810180546001600160a01b0319166001600160a01b039586161790559051600290910155838652600f83528686208554875283529486902085905592548551928352908201939093529192908516917f0fdd03ba21ae2037b428510251bdf5f2f767b4cb61bf011738280a2f525db6d5910160405180910390a35050565b6001600160a01b0381166000908152600b60209081526040808320805482518185028101850190935280835260609492939192909184015b82821015610bdf5760008481526020908190206040805160608101825260038602909201805483526001808201546001600160a01b031684860152600290910154918301919091529083529092019101610b8a565b505050509050919050565b6001600160a01b0383166000908152600b602052604090208054610c465760405162461bcd60e51b81526020600482015260136024820152724e6f206f666665727320617661696c61626c6560681b604482015260640161073e565b600060015b8254811015610cb857828281548110610c6657610c66612c9e565b906000526020600020906003020160020154838281548110610c8a57610c8a612c9e565b9060005260206000209060030201600201541115610ca6578091505b80610cb081612cf9565b915050610c4b565b506000828281548110610ccd57610ccd612c9e565b60009182526020918290206040805160608101825260039093029091018054835260018101546001600160a01b031693830193909352600290920154918101919091529050610d1b8561232b565b60208101516040516323b872dd60e01b81526001600160a01b038816916323b872dd91610d4e9133918990600401612d12565b600060405180830381600087803b158015610d6857600080fd5b505af1158015610d7c573d6000803e3d6000fd5b50508454859250610d909150600190612cca565b81548110610da057610da0612c9e565b9060005260206000209060030201838381548110610dc057610dc0612c9e565b60009182526020909120825460039092020190815560018083015490820180546001600160a01b0319166001600160a01b039092169190911790556002918201549101558254839080610e1557610e15612ce3565b600082815260208082206003600019909401938402018281556001810180546001600160a01b031916905560020182905591909255828101516001600160a01b03168252600f8152604080832084518452909152908190205490820151811015610ec15760405162461bcd60e51b815260206004820152601e60248201527f496e73756666696369656e742066756e647320696e20636f6e74726163740000604482015260640161073e565b6020828101516001600160a01b03166000908152600f8252604080822085518352909252818120819055818401519151909133918381818185875af1925050503d8060008114610f2d576040519150601f19603f3d011682016040523d82523d6000602084013e610f32565b606091505b5050905080610f835760405162461bcd60e51b815260206004820152601860248201527f5061796d656e7420746f2073656c6c6572206661696c65640000000000000000604482015260640161073e565b85886001600160a01b03167f47b97c7cbd7d3ec9d5cc511f0b698f7fe0b891454fc558e49eb656c216b445973386602001518760400151604051610fc993929190612d12565b60405180910390a35050505050505050565b336001600160a01b037f000000000000000000000000000000000000000000000000000000000000000016146110235760405162461bcd60e51b815260040161073e90612d36565b6040516001600160a01b037f000000000000000000000000000000000000000000000000000000000000000016904780156108fc02916000818181858888f19350505050158015611078573d6000803e3d6000fd5b50565b336001600160a01b037f000000000000000000000000000000000000000000000000000000000000000016146110c35760405162461bcd60e51b815260040161073e90612d36565b600555565b6000341161112b5760405162461bcd60e51b815260206004820152602a60248201527f4e6577206f6666657220616d6f756e74206d7573742062652067726561746572604482015269207468616e207a65726f60b01b606482015260840161073e565b6001600160a01b0382166000908152600b60205260408120905b8154811015610965578282828154811061116157611161612c9e565b9060005260206000209060030201600001541480156111b65750336001600160a01b031682828154811061119757611197612c9e565b60009182526020909120600160039092020101546001600160a01b0316145b156113295760008282815481106111cf576111cf612c9e565b90600052602060002090600302016002015490508034111561122a576111f58134612cca565b336000908152600f602090815260408083208884529091528120805490919061121f908490612d6d565b909155506112a29050565b803410156112a257600061123e3483612cca565b336000908152600f6020908152604080832089845290915281208054929350839290919061126d908490612cca565b9091555050604051339082156108fc029083906000818181858888f1935050505015801561129f573d6000803e3d6000fd5b50505b348383815481106112b5576112b5612c9e565b90600052602060002090600302016002018190555083856001600160a01b03167f7adc36236b9d9a3b2bafe01095b472dabd5b6dad7038a864ba3bbd2161a959c0333460405161131a9291906001600160a01b03929092168252602082015260400190565b60405180910390a35050505050565b8061133381612cf9565b915050611145565b336001600160a01b037f000000000000000000000000000000000000000000000000000000000000000016146113835760405162461bcd60e51b815260040161073e90612d36565b600655565b6060600061139560025490565b905060008167ffffffffffffffff8111156113b2576113b2612d80565b6040519080825280602002602001820160405280156113eb57816020015b6113d8612a1d565b8152602001906001900390816113d05790505b5090506000805b838110156114fb576000600d8161140a846001612d6d565b8152602081019190915260400160002060038101549091506001600160a01b0316331480611444575060048101546001600160a01b031633145b80156114545750600681015460ff165b156114e8576040805160e0810182528254815260018301546001600160a01b03908116602083015260028401549282019290925260038301548216606082015260048301549091166080820152600582015460a0820152600682015460ff16151560c082015284518590859081106114ce576114ce612c9e565b602002602001018190525082806114e490612cf9565b9350505b50806114f381612cf9565b9150506113f2565b5060008167ffffffffffffffff81111561151757611517612d80565b60405190808252806020026020018201604052801561155057816020015b61153d612a1d565b8152602001906001900390816115355790505b50905060005b828110156115a85783818151811061157057611570612c9e565b602002602001015182828151811061158a5761158a612c9e565b602002602001018190525080806115a090612cf9565b915050611556565b50949350505050565b600b60205281600052604060002081815481106115cd57600080fd5b60009182526020909120600390910201805460018201546002909201549093506001600160a01b03909116915083565b6060600061160a60025490565b9050600060015b828111611652576000818152600d602052604090206006015460ff1615611640578161163c81612cf9565b9250505b8061164a81612cf9565b915050611611565b5060008167ffffffffffffffff81111561166e5761166e612d80565b6040519080825280602002602001820160405280156116a757816020015b611694612a1d565b81526020019060019003908161168c5790505b509050600060015b848111611782576000818152600d602052604090206006015460ff1615611770576000818152600d6020908152604091829020825160e0810184528154815260018201546001600160a01b039081169382019390935260028201549381019390935260038101548216606084015260048101549091166080830152600581015460a08301526006015460ff16151560c0820152835184908490811061175657611756612c9e565b6020026020010181905250818061176c90612cf9565b9250505b8061177a81612cf9565b9150506116af565b5090949350505050565b6000818152600d60209081526040808320815160e081018352815481526001808301546001600160a01b039081169583019590955260028301548285018190526003840154861660608085019190915260048086015488166080860152600586015460a086015260069095015460ff16151560c0850152915494516331a9108f60e11b81529384015285948594859492938593909284921690636352211e90602401602060405180830381865afa15801561184b573d6000803e3d6000fd5b505050506040513d601f19601f8201168201806040525081019061186f9190612d96565b600154604080850151905163c87b56dd60e01b81529293506000926001600160a01b039092169163c87b56dd916118ac9160040190815260200190565b600060405180830381865afa1580156118c9573d6000803e3d6000fd5b505050506040513d6000823e601f3d908101601f191682016040526118f19190810190612db3565b6040840151608085015160a086015160c090960151919d949c509a50939850965091945092505050565b61192361291b565b6000818152600d6020526040902060058101546002820154600483015460068401546001600160a01b039091169060ff16806119995760405162461bcd60e51b8152602060048201526015602482015274131a5cdd1a5b99c81a5cc81b9bdd081b1a5cdd1959605a1b604482015260640161073e565b833410156119b95760405162461bcd60e51b815260040161073e90612e60565b6000868152600d602052604090206004810180546001600160a01b03191633179055600601805460ff191690556119f4600380546001019055565b6040516323b872dd60e01b81526001600160a01b038816906323b872dd90611a2490309033908890600401612d12565b600060405180830381600087803b158015611a3e57600080fd5b505af1158015611a52573d6000803e3d6000fd5b505050506000826001600160a01b03163460405160006040518083038185875af1925050503d8060008114611aa3576040519150601f19603f3d011682016040523d82523d6000602084013e611aa8565b606091505b5050905080611af95760405162461bcd60e51b815260206004820152601760248201527f5061796d656e74207472616e73666572206661696c6564000000000000000000604482015260640161073e565b611b0233612974565b604080518581526020810187905233917f38bb180d23818aef357ad4b3806bac3fa13c3492c0ac9d1727381fb2422aaada910160405180910390a25050505050506109aa6001600055565b611b5561291b565b600454341015611ba75760405162461bcd60e51b815260206004820152601860248201527f696e73756666696369656e74206c697374696e67206665650000000000000000604482015260640161073e565b60008111611c025760405162461bcd60e51b815260206004820152602260248201527f4d616b652073757265207468652070726963652069736e2774206e6567617469604482015261766560f01b606482015260840161073e565b6001546001600160a01b0390811690841603611cde576040516331a9108f60e11b81526004810183905233906001600160a01b03851690636352211e90602401602060405180830381865afa158015611c5f573d6000803e3d6000fd5b505050506040513d601f19601f82011682018060405250810190611c839190612d96565b6001600160a01b031614611cd95760405162461bcd60e51b815260206004820152601f60248201527f596f75206d757374206f776e20746865204e465420746f206c69737420697400604482015260640161073e565b611e68565b600154604051630375994960e61b81523360048201526001600160a01b039091169063dd66524090602401602060405180830381865afa158015611d26573d6000803e3d6000fd5b505050506040513d601f19601f82011682018060405250810190611d4a9190612ebe565b611da75760405162461bcd60e51b815260206004820152602860248201527f4f6e6c792076656e646f72732063616e206c6973742066726f6d20746869732060448201526718dbdb9d1c9858dd60c21b606482015260840161073e565b6040516331a9108f60e11b81526004810183905233906001600160a01b03851690636352211e90602401602060405180830381865afa158015611dee573d6000803e3d6000fd5b505050506040513d601f19601f82011682018060405250810190611e129190612d96565b6001600160a01b031614611e685760405162461bcd60e51b815260206004820152601f60248201527f596f75206d757374206f776e20746865204e465420746f206c69737420697400604482015260640161073e565b60405163020604bf60e21b81526004810183905230906001600160a01b0385169063081812fc90602401602060405180830381865afa158015611eaf573d6000803e3d6000fd5b505050506040513d601f19601f82011682018060405250810190611ed39190612d96565b6001600160a01b03161480611f51575060405163e985e9c560e01b81523360048201523060248201526001600160a01b0384169063e985e9c590604401602060405180830381865afa158015611f2d573d6000803e3d6000fd5b505050506040513d601f19601f82011682018060405250810190611f519190612ebe565b611fae5760405162461bcd60e51b815260206004820152602860248201527f436f6e7472616374206973206e6f7420617070726f76656420746f207472616e6044820152671cd9995c8813919560c21b606482015260840161073e565b611fbc600280546001019055565b6000611fc760025490565b6040516323b872dd60e01b81529091506001600160a01b038516906323b872dd90611ffa90339030908890600401612d12565b600060405180830381600087803b15801561201457600080fd5b505af1158015612028573d6000803e3d6000fd5b50506040805160e0810182528481526001600160a01b0388811660208084019182528385018a81523060608601908152336080870190815260a087018c8152600160c0890181815260008e8152600d9097528a872099518a55965190890180546001600160a01b0319908116928a169290921790559351600289015591516003880180548516918816919091179055516004870180549093169086161790915551600585015590516006909301805460ff19169315159390931790925591519093507f0000000000000000000000000000000000000000000000000000000000000000909116915034908381818185875af1925050503d806000811461214a576040519150601f19603f3d011682016040523d82523d6000602084013e61214f565b606091505b50509050806121ac5760405162461bcd60e51b815260206004820152602360248201527f4661696c656420746f2073656e64206c697374696e672066656520746f206f776044820152623732b960e91b606482015260840161073e565b604080513081523360208201529081018490526001606082015284907f9339409317fd01fabff48b703019016f49159bacc801ae872d2ca637d226e4c09060800160405180910390a250506122016001600055565b505050565b6060600061221360025490565b905060008167ffffffffffffffff81111561223057612230612d80565b60405190808252806020026020018201604052801561226957816020015b612256612a1d565b81526020019060019003908161224e5790505b50905060015b828111612324576000818152600d6020908152604091829020825160e081018452815481526001808301546001600160a01b039081169483019490945260028301549482019490945260038201548316606082015260048201549092166080830152600581015460a08301526006015460ff16151560c08201529083906122f69084612cca565b8151811061230657612306612c9e565b6020026020010181905250808061231c90612cf9565b91505061226f565b5092915050565b61233361291b565b6000818152600d60205260409020600681015460ff166123895760405162461bcd60e51b8152602060048201526011602482015270139195081a5cc81b9bdd081b1a5cdd1959607a1b604482015260640161073e565b60048101546001600160a01b031633146123de5760405162461bcd60e51b815260206004820152601660248201527513db9b1e481cd95b1b195c8818d85b8819195b1a5cdd60521b604482015260640161073e565b6002810154600182015460068301805460ff191690556040516323b872dd60e01b81526001600160a01b039091169081906323b872dd9061242790309033908790600401612d12565b600060405180830381600087803b15801561244157600080fd5b505af1158015612455573d6000803e3d6000fd5b50506040513381528692507fef1499b350e05776e60cd2ffcac001569a28e9d574e1f3adc1b3ab264f8ccffd915060200160405180910390a25050506110786001600055565b6124a361291b565b600081116125045760405162461bcd60e51b815260206004820152602860248201527f4d616b652073757265207468652070726963652069732067726561746572207460448201526768616e207a65726f60c01b606482015260840161073e565b6000828152600d60205260409020600681015460ff166125725760405162461bcd60e51b8152602060048201526024808201527f4e4654206973206e6f74206c697374656420696e20746865206d61726b6574706044820152636c61636560e01b606482015260840161073e565b60048101546001600160a01b031633146125d85760405162461bcd60e51b815260206004820152602160248201527f4f6e6c7920746865206f776e65722063616e20656469742074686520707269636044820152606560f81b606482015260840161073e565b6005018190556109aa6001600055565b336001600160a01b037f000000000000000000000000000000000000000000000000000000000000000016146126305760405162461bcd60e51b815260040161073e90612d36565b61263861291b565b6000818152600d60205260409020600681015460ff166126925760405162461bcd60e51b81526020600482015260156024820152744c697374696e67206973206e6f742061637469766560581b604482015260640161073e565b80600501543410156126b65760405162461bcd60e51b815260040161073e90612e60565b60028101546004820180546001600160a01b038681166001600160a01b031983161790925560068401805460ff19169055166126f6600380546001019055565b60018301546040516323b872dd60e01b81526001600160a01b03909116906323b872dd9061272c90309089908790600401612d12565b600060405180830381600087803b15801561274657600080fd5b505af115801561275a573d6000803e3d6000fd5b50506040516001600160a01b03841692503480156108fc029250906000818181858888f19350505050158015612794573d6000803e3d6000fd5b50846001600160a01b03167f38bb180d23818aef357ad4b3806bac3fa13c3492c0ac9d1727381fb2422aaada8385600501546040516127dd929190918252602082015260400190565b60405180910390a25050506109aa6001600055565b7f00000000000000000000000000000000000000000000000000000000000000006001600160a01b031633146128765760405162461bcd60e51b815260206004820152602360248201527f4f6e6c79206f776e65722063616e20757064617465206c697374696e6720707260448201526269636560e81b606482015260840161073e565b655af3107a400081101580156128945750678ac7230489e800008111155b6128e05760405162461bcd60e51b815260206004820152601860248201527f4c697374696e6720666565206f7574206f662072616e67650000000000000000604482015260640161073e565b60048190556040518181527f5fb4654f1efe30c6141eaa6855ffcb27e0b361d899b05e21b1a4d0b3e71e14db9060200160405180910390a150565b60026000540361296d5760405162461bcd60e51b815260206004820152601f60248201527f5265656e7472616e637947756172643a207265656e7472616e742063616c6c00604482015260640161073e565b6002600055565b6005546001600160a01b0382166000908152600760205260408120805490919061299f908490612d6d565b90915550506001600160a01b03811660009081526008602052604081208054916129c883612cf9565b90915550506001600160a01b0381166000818152600760209081526040918290205491519182527fa05f39e6d8d4e060324edb900f0f5909de621fd93f19ccf65ba74e5965c98c36910160405180910390a250565b6040805160e081018252600080825260208201819052918101829052606081018290526080810182905260a0810182905260c081019190915290565b6001600160a01b038116811461107857600080fd5b60008060408385031215612a8157600080fd5b8235612a8c81612a59565b946020939093013593505050565b600080600060608486031215612aaf57600080fd5b8335612aba81612a59565b95602085013595506040909401359392505050565b600060208284031215612ae157600080fd5b8135612aec81612a59565b9392505050565b602080825282518282018190526000919060409081850190868401855b82811015612b4857815180518552868101516001600160a01b0316878601528501518585015260609093019290850190600101612b10565b5091979650505050505050565b600060208284031215612b6757600080fd5b5035919050565b602080825282518282018190526000919060409081850190868401855b82811015612b4857815180518552868101516001600160a01b039081168887015286820151878701526060808301518216908701526080808301519091169086015260a0808201519086015260c09081015115159085015260e09093019290850190600101612b8b565b60005b83811015612c10578181015183820152602001612bf8565b50506000910152565b868152600060018060a01b03808816602084015280871660408401525084606083015260c0608083015283518060c0840152612c5c8160e0850160208801612bf5565b92151560a083015250601f91909101601f19160160e00195945050505050565b60008060408385031215612c8f57600080fd5b50508035926020909101359150565b634e487b7160e01b600052603260045260246000fd5b634e487b7160e01b600052601160045260246000fd5b81810381811115612cdd57612cdd612cb4565b92915050565b634e487b7160e01b600052603160045260246000fd5b600060018201612d0b57612d0b612cb4565b5060010190565b6001600160a01b039384168152919092166020820152604081019190915260600190565b60208082526017908201527f43616c6c6572206973206e6f7420746865206f776e6572000000000000000000604082015260600190565b80820180821115612cdd57612cdd612cb4565b634e487b7160e01b600052604160045260246000fd5b600060208284031215612da857600080fd5b8151612aec81612a59565b600060208284031215612dc557600080fd5b815167ffffffffffffffff80821115612ddd57600080fd5b818401915084601f830112612df157600080fd5b815181811115612e0357612e03612d80565b604051601f8201601f19908116603f01168101908382118183101715612e2b57612e2b612d80565b81604052828152876020848701011115612e4457600080fd5b612e55836020830160208801612bf5565b979650505050505050565b602080825260409082018190527f506c65617365207375626d6974207468652061736b696e672070726963652069908201527f6e206f7264657220746f20636f6d706c65746520746865207075726368617365606082015260800190565b600060208284031215612ed057600080fd5b81518015158114612aec57600080fdfea2646970667358221220b035cd9866b3cef07738fd253443cde8e2763603f7b2229a4f60cbe30409902e64736f6c63430008110033",
  "linkReferences": {},
  "deployedLinkReferences": {}
}