{
  "_format": "hh-sol-artifact-1",
  "contractName": "VendorNFT",
  "sourceName": "contracts/VendorNFT.sol",
  "abi": [
    {
      "inputs": [
        {
          "internalType": "address payable",
          "name": "_developer",
          "type": "address"
        }
      ],
      "stateMutability": "nonpayable",
      "type": "constructor"
    },
    {
      "anonymous": false,
      "inputs": [
        {
          "indexed": true,
          "internalType": "address",
          "name": "owner",
          "type": "address"
        },
        {
          "indexed": true,
          "internalType": "address",
          "name": "approved",
          "type": "address"
        },
        {
          "indexed": true,
          "internalType": "uint256",
          "name": "tokenId",
          "type": "uint256"
        }
      ],
      "name": "Approval",
      "type": "event"
    },
    {
      "anonymous": false,
      "inputs": [
        {
          "indexed": true,
          "internalType": "address",
          "name": "owner",
          "type": "address"
        },
        {
          "indexed": true,
          "internalType": "address",
          "name": "operator",
          "type": "address"
        },
        {
          "indexed": false,
          "internalType": "bool",
          "name": "approved",
          "type": "bool"
        }
      ],
      "name": "ApprovalForAll",
      "type": "event"
    },
    {
      "anonymous": false,
      "inputs": [
        {
          "indexed": false,
          "internalType": "uint256",
          "name": "_fromTokenId",
          "type": "uint256"
        },
        {
          "indexed": false,
          "internalType": "uint256",
          "name": "_toTokenId",
          "type": "uint256"
        }
      ],
      "name": "BatchMetadataUpdate",
      "type": "event"
    },
    {
      "anonymous": false,
      "inputs": [
        {
          "indexed": false,
          "internalType": "uint256",
          "name": "_tokenId",
          "type": "uint256"
        }
      ],
      "name": "MetadataUpdate",
      "type": "event"
    },
    {
      "anonymous": false,
      "inputs": [
        {
          "indexed": true,
          "internalType": "address",
          "name": "previousOwner",
          "type": "address"
        },
        {
          "indexed": true,
          "internalType": "address",
          "name": "newOwner",
          "type": "address"
        }
      ],
      "name": "OwnershipTransferred",
      "type": "event"
    },
    {
      "anonymous": false,
      "inputs": [
        {
          "indexed": true,
          "internalType": "address",
          "name": "from",
          "type": "address"
        },
        {
          "indexed": true,
          "internalType": "address",
          "name": "to",
          "type": "address"
        },
        {
          "indexed": true,
          "internalType": "uint256",
          "name": "tokenId",
          "type": "uint256"
        }
      ],
      "name": "Transfer",
      "type": "event"
    },
    {
      "inputs": [
        {
          "internalType": "address",
          "name": "vendor",
          "type": "address"
        }
      ],
      "name": "addVendor",
      "outputs": [],
      "stateMutability": "nonpayable",
      "type": "function"
    },
    {
      "inputs": [
        {
          "internalType": "address",
          "name": "to",
          "type": "address"
        },
        {
          "internalType": "uint256",
          "name": "tokenId",
          "type": "uint256"
        }
      ],
      "name": "approve",
      "outputs": [],
      "stateMutability": "nonpayable",
      "type": "function"
    },
    {
      "inputs": [
        {
          "internalType": "address",
          "name": "",
          "type": "address"
        }
      ],
      "name": "authorizedVendors",
      "outputs": [
        {
          "internalType": "bool",
          "name": "",
          "type": "bool"
        }
      ],
      "stateMutability": "view",
      "type": "function"
    },
    {
      "inputs": [
        {
          "internalType": "address",
          "name": "owner",
          "type": "address"
        }
      ],
      "name": "balanceOf",
      "outputs": [
        {
          "internalType": "uint256",
          "name": "",
          "type": "uint256"
        }
      ],
      "stateMutability": "view",
      "type": "function"
    },
    {
      "inputs": [
        {
          "internalType": "string[]",
          "name": "_tokenURIs",
          "type": "string[]"
        }
      ],
      "name": "devMint",
      "outputs": [],
      "stateMutability": "nonpayable",
      "type": "function"
    },
    {
      "inputs": [],
      "name": "getAllVendors",
      "outputs": [
        {
          "internalType": "address[]",
          "name": "",
          "type": "address[]"
        }
      ],
      "stateMutability": "view",
      "type": "function"
    },
    {
      "inputs": [
        {
          "internalType": "uint256",
          "name": "tokenId",
          "type": "uint256"
        }
      ],
      "name": "getApproved",
      "outputs": [
        {
          "internalType": "address",
          "name": "",
          "type": "address"
        }
      ],
      "stateMutability": "view",
      "type": "function"
    },
    {
      "inputs": [],
      "name": "getMistingFee",
      "outputs": [
        {
          "internalType": "uint256",
          "name": "",
          "type": "uint256"
        }
      ],
      "stateMutability": "view",
      "type": "function"
    },
    {
      "inputs": [
        {
          "internalType": "uint256",
          "name": "tokenId",
          "type": "uint256"
        }
      ],
      "name": "getNFTById",
      "outputs": [
        {
          "internalType": "address",
          "name": "owner",
          "type": "address"
        },
        {
          "internalType": "string",
          "name": "tokeNURI",
          "type": "string"
        }
      ],
      "stateMutability": "view",
      "type": "function"
    },
    {
      "inputs": [
        {
          "internalType": "address",
          "name": "owner",
          "type": "address"
        },
        {
          "internalType": "address",
          "name": "operator",
          "type": "address"
        }
      ],
      "name": "isApprovedForAll",
      "outputs": [
        {
          "internalType": "bool",
          "name": "",
          "type": "bool"
        }
      ],
      "stateMutability": "view",
      "type": "function"
    },
    {
      "inputs": [
        {
          "internalType": "address",
          "name": "vendor",
          "type": "address"
        }
      ],
      "name": "isAuthorizedVendor",
      "outputs": [
        {
          "internalType": "bool",
          "name": "",
          "type": "bool"
        }
      ],
      "stateMutability": "view",
      "type": "function"
    },
    {
      "inputs": [],
      "name": "mintingFee",
      "outputs": [
        {
          "internalType": "uint256",
          "name": "",
          "type": "uint256"
        }
      ],
      "stateMutability": "view",
      "type": "function"
    },
    {
      "inputs": [],
      "name": "name",
      "outputs": [
        {
          "internalType": "string",
          "name": "",
          "type": "string"
        }
      ],
      "stateMutability": "view",
      "type": "function"
    },
    {
      "inputs": [],
      "name": "owner",
      "outputs": [
        {
          "internalType": "address",
          "name": "",
          "type": "address"
        }
      ],
      "stateMutability": "view",
      "type": "function"
    },
    {
      "inputs": [
        {
          "internalType": "uint256",
          "name": "tokenId",
          "type": "uint256"
        }
      ],
      "name": "ownerOf",
      "outputs": [
        {
          "internalType": "address",
          "name": "",
          "type": "address"
        }
      ],
      "stateMutability": "view",
      "type": "function"
    },
    {
      "inputs": [
        {
          "internalType": "string",
          "name": "_tokenURI",
          "type": "string"
        },
        {
          "internalType": "address",
          "name": "contractAddress",
          "type": "address"
        }
      ],
      "name": "publicMint",
      "outputs": [],
      "stateMutability": "payable",
      "type": "function"
    },
    {
      "inputs": [
        {
          "internalType": "address",
          "name": "vendor",
          "type": "address"
        }
      ],
      "name": "removeVendor",
      "outputs": [],
      "stateMutability": "nonpayable",
      "type": "function"
    },
    {
      "inputs": [],
      "name": "renounceOwnership",
      "outputs": [],
      "stateMutability": "nonpayable",
      "type": "function"
    },
    {
      "inputs": [
        {
          "internalType": "address",
          "name": "from",
          "type": "address"
        },
        {
          "internalType": "address",
          "name": "to",
          "type": "address"
        },
        {
          "internalType": "uint256",
          "name": "tokenId",
          "type": "uint256"
        }
      ],
      "name": "safeTransferFrom",
      "outputs": [],
      "stateMutability": "nonpayable",
      "type": "function"
    },
    {
      "inputs": [
        {
          "internalType": "address",
          "name": "from",
          "type": "address"
        },
        {
          "internalType": "address",
          "name": "to",
          "type": "address"
        },
        {
          "internalType": "uint256",
          "name": "tokenId",
          "type": "uint256"
        },
        {
          "internalType": "bytes",
          "name": "data",
          "type": "bytes"
        }
      ],
      "name": "safeTransferFrom",
      "outputs": [],
      "stateMutability": "nonpayable",
      "type": "function"
    },
    {
      "inputs": [
        {
          "internalType": "address",
          "name": "operator",
          "type": "address"
        },
        {
          "internalType": "bool",
          "name": "approved",
          "type": "bool"
        }
      ],
      "name": "setApprovalForAll",
      "outputs": [],
      "stateMutability": "nonpayable",
      "type": "function"
    },
    {
      "inputs": [
        {
          "internalType": "uint256",
          "name": "newFee",
          "type": "uint256"
        }
      ],
      "name": "setMintingFee",
      "outputs": [],
      "stateMutability": "nonpayable",
      "type": "function"
    },
    {
      "inputs": [
        {
          "internalType": "bytes4",
          "name": "interfaceId",
          "type": "bytes4"
        }
      ],
      "name": "supportsInterface",
      "outputs": [
        {
          "internalType": "bool",
          "name": "",
          "type": "bool"
        }
      ],
      "stateMutability": "view",
      "type": "function"
    },
    {
      "inputs": [],
      "name": "symbol",
      "outputs": [
        {
          "internalType": "string",
          "name": "",
          "type": "string"
        }
      ],
      "stateMutability": "view",
      "type": "function"
    },
    {
      "inputs": [
        {
          "internalType": "uint256",
          "name": "tokenId",
          "type": "uint256"
        }
      ],
      "name": "tokenURI",
      "outputs": [
        {
          "internalType": "string",
          "name": "",
          "type": "string"
        }
      ],
      "stateMutability": "view",
      "type": "function"
    },
    {
      "inputs": [
        {
          "internalType": "address",
          "name": "from",
          "type": "address"
        },
        {
          "internalType": "address",
          "name": "to",
          "type": "address"
        },
        {
          "internalType": "uint256",
          "name": "tokenId",
          "type": "uint256"
        }
      ],
      "name": "transferFrom",
      "outputs": [],
      "stateMutability": "nonpayable",
      "type": "function"
    },
    {
      "inputs": [
        {
          "internalType": "address",
          "name": "newOwner",
          "type": "address"
        }
      ],
      "name": "transferOwnership",
      "outputs": [],
      "stateMutability": "nonpayable",
      "type": "function"
    },
    {
      "inputs": [
        {
          "internalType": "string[]",
          "name": "_tokenURIs",
          "type": "string[]"
        }
      ],
      "name": "vendorBatchMint",
      "outputs": [],
      "stateMutability": "nonpayable",
      "type": "function"
    },
    {
      "inputs": [
        {
          "internalType": "uint256",
          "name": "",
          "type": "uint256"
        }
      ],
      "name": "vendorList",
      "outputs": [
        {
          "internalType": "address",
          "name": "",
          "type": "address"
        }
      ],
      "stateMutability": "view",
      "type": "function"
    },
    {
      "inputs": [
        {
          "internalType": "string",
          "name": "_tokenURI",
          "type": "string"
        },
        {
          "internalType": "address",
          "name": "contractAddress",
          "type": "address"
        }
      ],
      "name": "vendorMint",
      "outputs": [],
      "stateMutability": "nonpayable",
      "type": "function"
    },
    {
      "inputs": [],
      "name": "withdraw",
      "outputs": [],
      "stateMutability": "nonpayable",
      "type": "function"
    }
  ],
  "bytecode": "0x60a0604052662386f26fc100006009553480156200001c57600080fd5b5060405162002629380380620026298339810160408190526200003f9162000128565b6040518060400160405280600b81526020016a11155490d208141150549360aa1b81525060405180604001604052806007815260200166110b541150549360ca1b8152508160009081620000949190620001ff565b506001620000a38282620001ff565b505050620000c0620000ba620000d260201b60201c565b620000d6565b6001600160a01b0316608052620002cb565b3390565b600780546001600160a01b038381166001600160a01b0319831681179093556040519116919082907f8be0079c531659141344cd1fd0a4f28419497f9722a3daafe3b4186f6b6457e090600090a35050565b6000602082840312156200013b57600080fd5b81516001600160a01b03811681146200015357600080fd5b9392505050565b634e487b7160e01b600052604160045260246000fd5b600181811c908216806200018557607f821691505b602082108103620001a657634e487b7160e01b600052602260045260246000fd5b50919050565b601f821115620001fa57600081815260208120601f850160051c81016020861015620001d55750805b601f850160051c820191505b81811015620001f657828155600101620001e1565b5050505b505050565b81516001600160401b038111156200021b576200021b6200015a565b62000233816200022c845462000170565b84620001ac565b602080601f8311600181146200026b5760008415620002525750858301515b600019600386901b1c1916600185901b178555620001f6565b600085815260208120601f198616915b828110156200029c578886015182559484019460019091019084016200027b565b5085821015620002bb5787850151600019600388901b60f8161c191681555b5050505050600190811b01905550565b608051612342620002e7600039600061083701526123426000f3fe6080604052600436106101d85760003560e01c8063715018a611610102578063c87b56dd11610095578063e985e9c511610064578063e985e9c51461056b578063f036649b1461058b578063f2fde38b146105a0578063f7793862146105c057600080fd5b8063c87b56dd146104d2578063dd665240146104f2578063e3daa3e71461052b578063e949659f1461054b57600080fd5b8063a168b805116100d1578063a168b80514610451578063a22cb4651461047f578063a5b926711461049f578063b88d4fde146104b257600080fd5b8063715018a6146103e957806384090734146103fe5780638da5cb5b1461041e57806395d89b411461043c57600080fd5b80633ccfd60b1161017a5780635a64ad95116101495780635a64ad95146103635780635e0b421e146103875780636352211e146103a957806370a08231146103c957600080fd5b80633ccfd60b146102ee57806342842e0e1461030357806345e0f7531461032357806354b622c91461034357600080fd5b8063095ea7b3116101b6578063095ea7b31461026c578063238a47091461028e57806323b872dd146102ae5780632f021da6146102ce57600080fd5b806301ffc9a7146101dd57806306fdde0314610212578063081812fc14610234575b600080fd5b3480156101e957600080fd5b506101fd6101f8366004611b7d565b6105f0565b60405190151581526020015b60405180910390f35b34801561021e57600080fd5b5061022761061b565b6040516102099190611bea565b34801561024057600080fd5b5061025461024f366004611bfd565b6106ad565b6040516001600160a01b039091168152602001610209565b34801561027857600080fd5b5061028c610287366004611c32565b6106d4565b005b34801561029a57600080fd5b5061028c6102a9366004611bfd565b6107ee565b3480156102ba57600080fd5b5061028c6102c9366004611c5c565b6107fb565b3480156102da57600080fd5b5061028c6102e9366004611d57565b61082c565b3480156102fa57600080fd5b5061028c610983565b34801561030f57600080fd5b5061028c61031e366004611c5c565b6109c7565b34801561032f57600080fd5b5061028c61033e366004611e1a565b6109e2565b34801561034f57600080fd5b5061028c61035e366004611e1a565b610a50565b34801561036f57600080fd5b5061037960095481565b604051908152602001610209565b34801561039357600080fd5b5061039c610b81565b6040516102099190611e35565b3480156103b557600080fd5b506102546103c4366004611bfd565b610be2565b3480156103d557600080fd5b506103796103e4366004611e1a565b610c42565b3480156103f557600080fd5b5061028c610cc8565b34801561040a57600080fd5b50610254610419366004611bfd565b610cdc565b34801561042a57600080fd5b506007546001600160a01b0316610254565b34801561044857600080fd5b50610227610d06565b34801561045d57600080fd5b5061047161046c366004611bfd565b610d15565b604051610209929190611e82565b34801561048b57600080fd5b5061028c61049a366004611ea6565b610d34565b61028c6104ad366004611ee2565b610d3f565b3480156104be57600080fd5b5061028c6104cd366004611f30565b610dcb565b3480156104de57600080fd5b506102276104ed366004611bfd565b610e03565b3480156104fe57600080fd5b506101fd61050d366004611e1a565b6001600160a01b03166000908152600a602052604090205460ff1690565b34801561053757600080fd5b5061028c610546366004611d57565b610e0e565b34801561055757600080fd5b5061028c610566366004611ee2565b610f2c565b34801561057757600080fd5b506101fd610586366004611fac565b610fab565b34801561059757600080fd5b50600954610379565b3480156105ac57600080fd5b5061028c6105bb366004611e1a565b610fd9565b3480156105cc57600080fd5b506101fd6105db366004611e1a565b600a6020526000908152604090205460ff1681565b60006001600160e01b03198216632483248360e11b148061061557506106158261104f565b92915050565b60606000805461062a90611fd6565b80601f016020809104026020016040519081016040528092919081815260200182805461065690611fd6565b80156106a35780601f10610678576101008083540402835291602001916106a3565b820191906000526020600020905b81548152906001019060200180831161068657829003601f168201915b5050505050905090565b60006106b88261109f565b506000908152600460205260409020546001600160a01b031690565b60006106df82610be2565b9050806001600160a01b0316836001600160a01b0316036107515760405162461bcd60e51b815260206004820152602160248201527f4552433732313a20617070726f76616c20746f2063757272656e74206f776e656044820152603960f91b60648201526084015b60405180910390fd5b336001600160a01b038216148061076d575061076d8133610fab565b6107df5760405162461bcd60e51b815260206004820152603d60248201527f4552433732313a20617070726f76652063616c6c6572206973206e6f7420746f60448201527f6b656e206f776e6572206f7220617070726f76656420666f7220616c6c0000006064820152608401610748565b6107e983836110fe565b505050565b6107f661116c565b600955565b61080533826111c6565b6108215760405162461bcd60e51b815260040161074890612010565b6107e9838383611225565b336001600160a01b037f000000000000000000000000000000000000000000000000000000000000000016146108b25760405162461bcd60e51b815260206004820152602560248201527f4f6e6c7920646576656c6f7065722063616e2063616c6c20746869732066756e60448201526431ba34b7b760d91b6064820152608401610748565b60008151116109035760405162461bcd60e51b815260206004820152601a60248201527f4d757374206d696e74206174206c65617374206f6e65204e46540000000000006044820152606401610748565b600061090e60085490565b905060005b82518110156107e95761092a600880546001019055565b60006109368284612073565b610941906001612073565b905061094d3382611389565b6109708185848151811061096357610963612086565b60200260200101516113a3565b508061097b8161209c565b915050610913565b61098b61116c565b6007546040516001600160a01b03909116904780156108fc02916000818181858888f193505050501580156109c4573d6000803e3d6000fd5b50565b6107e983838360405180602001604052806000815250610dcb565b6109ea61116c565b6001600160a01b03166000818152600a60205260408120805460ff19166001908117909155600b805491820181559091527f0175b7a638427703f0dbe7bb9bbf987a2551717b34e79f33b5b1008d1fa01db90180546001600160a01b0319169091179055565b610a5861116c565b6001600160a01b0381166000908152600a60205260408120805460ff191690555b600b54811015610b7d57816001600160a01b0316600b8281548110610aa057610aa0612086565b6000918252602090912001546001600160a01b031603610b6b57600b8054610aca906001906120b5565b81548110610ada57610ada612086565b600091825260209091200154600b80546001600160a01b039092169183908110610b0657610b06612086565b9060005260206000200160006101000a8154816001600160a01b0302191690836001600160a01b03160217905550600b805480610b4557610b456120c8565b600082815260209020810160001990810180546001600160a01b03191690550190555050565b80610b758161209c565b915050610a79565b5050565b6060600b8054806020026020016040519081016040528092919081815260200182805480156106a357602002820191906000526020600020905b81546001600160a01b03168152600190910190602001808311610bbb575050505050905090565b6000818152600260205260408120546001600160a01b0316806106155760405162461bcd60e51b8152602060048201526018602482015277115490cdcc8c4e881a5b9d985b1a59081d1bdad95b88125160421b6044820152606401610748565b60006001600160a01b038216610cac5760405162461bcd60e51b815260206004820152602960248201527f4552433732313a2061646472657373207a65726f206973206e6f7420612076616044820152683634b21037bbb732b960b91b6064820152608401610748565b506001600160a01b031660009081526003602052604090205490565b610cd061116c565b610cda600061146e565b565b600b8181548110610cec57600080fd5b6000918252602090912001546001600160a01b0316905081565b60606001805461062a90611fd6565b60006060610d2283610be2565b9150610d2d836114c0565b9050915091565b610b7d3383836115c8565b610d4d600880546001019055565b6000610d5860085490565b9050600954341015610dac5760405162461bcd60e51b815260206004820152601860248201527f496e73756666696369656e74206d696e74696e672066656500000000000000006044820152606401610748565b610db63382611389565b610dc081846113a3565b6107e9826001610d34565b610dd533836111c6565b610df15760405162461bcd60e51b815260040161074890612010565b610dfd84848484611696565b50505050565b6060610615826114c0565b336000908152600a602052604090205460ff16610e685760405162461bcd60e51b81526020600482015260186024820152772737ba1030b71030baba3437b934bd32b2103b32b73237b960411b6044820152606401610748565b6000815111610eb95760405162461bcd60e51b815260206004820152601a60248201527f4d757374206d696e74206174206c65617374206f6e65204e46540000000000006044820152606401610748565b6000610ec460085490565b905060005b82518110156107e957610ee0600880546001019055565b6000610eec8284612073565b610ef7906001612073565b9050610f033382611389565b610f198185848151811061096357610963612086565b5080610f248161209c565b915050610ec9565b336000908152600a602052604090205460ff16610f865760405162461bcd60e51b81526020600482015260186024820152772737ba1030b71030baba3437b934bd32b2103b32b73237b960411b6044820152606401610748565b610f94600880546001019055565b6000610f9f60085490565b9050610db63382611389565b6001600160a01b03918216600090815260056020908152604080832093909416825291909152205460ff1690565b610fe161116c565b6001600160a01b0381166110465760405162461bcd60e51b815260206004820152602660248201527f4f776e61626c653a206e6577206f776e657220697320746865207a65726f206160448201526564647265737360d01b6064820152608401610748565b6109c48161146e565b60006001600160e01b031982166380ac58cd60e01b148061108057506001600160e01b03198216635b5e139f60e01b145b8061061557506301ffc9a760e01b6001600160e01b0319831614610615565b6000818152600260205260409020546001600160a01b03166109c45760405162461bcd60e51b8152602060048201526018602482015277115490cdcc8c4e881a5b9d985b1a59081d1bdad95b88125160421b6044820152606401610748565b600081815260046020526040902080546001600160a01b0319166001600160a01b038416908117909155819061113382610be2565b6001600160a01b03167f8c5be1e5ebec7d5bd14f71427d1e84f3dd0314c0f7b2291e5b200ac8c7c3b92560405160405180910390a45050565b6007546001600160a01b03163314610cda5760405162461bcd60e51b815260206004820181905260248201527f4f776e61626c653a2063616c6c6572206973206e6f7420746865206f776e65726044820152606401610748565b6000806111d283610be2565b9050806001600160a01b0316846001600160a01b031614806111f957506111f98185610fab565b8061121d5750836001600160a01b0316611212846106ad565b6001600160a01b0316145b949350505050565b826001600160a01b031661123882610be2565b6001600160a01b03161461125e5760405162461bcd60e51b8152600401610748906120de565b6001600160a01b0382166112c05760405162461bcd60e51b8152602060048201526024808201527f4552433732313a207472616e7366657220746f20746865207a65726f206164646044820152637265737360e01b6064820152608401610748565b826001600160a01b03166112d382610be2565b6001600160a01b0316146112f95760405162461bcd60e51b8152600401610748906120de565b600081815260046020908152604080832080546001600160a01b03199081169091556001600160a01b0387811680865260038552838620805460001901905590871680865283862080546001019055868652600290945282852080549092168417909155905184937fddf252ad1be2c89b69c2b068fc378daa952ba7f163c4a11628f55a4df523b3ef91a4505050565b610b7d8282604051806020016040528060008152506116c9565b6000828152600260205260409020546001600160a01b031661141e5760405162461bcd60e51b815260206004820152602e60248201527f45524337323155524953746f726167653a2055524920736574206f66206e6f6e60448201526d32bc34b9ba32b73a103a37b5b2b760911b6064820152608401610748565b60008281526006602052604090206114368282612171565b506040518281527ff8e1a15aba9398e019f0b49df1a4fde98ee17ae345cb5f6b5e2c27f5033e8ce79060200160405180910390a15050565b600780546001600160a01b038381166001600160a01b0319831681179093556040519116919082907f8be0079c531659141344cd1fd0a4f28419497f9722a3daafe3b4186f6b6457e090600090a35050565b60606114cb8261109f565b600082815260066020526040812080546114e490611fd6565b80601f016020809104026020016040519081016040528092919081815260200182805461151090611fd6565b801561155d5780601f106115325761010080835404028352916020019161155d565b820191906000526020600020905b81548152906001019060200180831161154057829003601f168201915b50505050509050600061157b60408051602081019091526000815290565b9050805160000361158d575092915050565b8151156115bf5780826040516020016115a7929190612231565b60405160208183030381529060405292505050919050565b61121d846116fc565b816001600160a01b0316836001600160a01b0316036116295760405162461bcd60e51b815260206004820152601960248201527f4552433732313a20617070726f766520746f2063616c6c6572000000000000006044820152606401610748565b6001600160a01b03838116600081815260056020908152604080832094871680845294825291829020805460ff191686151590811790915591519182527f17307eab39ab6107e8899845ad3d59bd9653f200f220920489ca2b5937696c31910160405180910390a3505050565b6116a1848484611225565b6116ad84848484611770565b610dfd5760405162461bcd60e51b815260040161074890612260565b6116d38383611871565b6116e06000848484611770565b6107e95760405162461bcd60e51b815260040161074890612260565b60606117078261109f565b600061171e60408051602081019091526000815290565b9050600081511161173e5760405180602001604052806000815250611769565b80611748846119fc565b604051602001611759929190612231565b6040516020818303038152906040525b9392505050565b60006001600160a01b0384163b1561186657604051630a85bd0160e11b81526001600160a01b0385169063150b7a02906117b49033908990889088906004016122b2565b6020604051808303816000875af19250505080156117ef575060408051601f3d908101601f191682019092526117ec918101906122ef565b60015b61184c573d80801561181d576040519150601f19603f3d011682016040523d82523d6000602084013e611822565b606091505b5080516000036118445760405162461bcd60e51b815260040161074890612260565b805181602001fd5b6001600160e01b031916630a85bd0160e11b14905061121d565b506001949350505050565b6001600160a01b0382166118c75760405162461bcd60e51b815260206004820181905260248201527f4552433732313a206d696e7420746f20746865207a65726f20616464726573736044820152606401610748565b6000818152600260205260409020546001600160a01b03161561192c5760405162461bcd60e51b815260206004820152601c60248201527f4552433732313a20746f6b656e20616c7265616479206d696e746564000000006044820152606401610748565b6000818152600260205260409020546001600160a01b0316156119915760405162461bcd60e51b815260206004820152601c60248201527f4552433732313a20746f6b656e20616c7265616479206d696e746564000000006044820152606401610748565b6001600160a01b038216600081815260036020908152604080832080546001019055848352600290915280822080546001600160a01b0319168417905551839291907fddf252ad1be2c89b69c2b068fc378daa952ba7f163c4a11628f55a4df523b3ef908290a45050565b60606000611a0983611a8f565b600101905060008167ffffffffffffffff811115611a2957611a29611c98565b6040519080825280601f01601f191660200182016040528015611a53576020820181803683370190505b5090508181016020015b600019016f181899199a1a9b1b9c1cb0b131b232b360811b600a86061a8153600a8504945084611a5d57509392505050565b60008072184f03e93ff9f4daa797ed6e38ed64bf6a1f0160401b8310611ace5772184f03e93ff9f4daa797ed6e38ed64bf6a1f0160401b830492506040015b6d04ee2d6d415b85acef81000000008310611afa576d04ee2d6d415b85acef8100000000830492506020015b662386f26fc100008310611b1857662386f26fc10000830492506010015b6305f5e1008310611b30576305f5e100830492506008015b6127108310611b4457612710830492506004015b60648310611b56576064830492506002015b600a83106106155760010192915050565b6001600160e01b0319811681146109c457600080fd5b600060208284031215611b8f57600080fd5b813561176981611b67565b60005b83811015611bb5578181015183820152602001611b9d565b50506000910152565b60008151808452611bd6816020860160208601611b9a565b601f01601f19169290920160200192915050565b6020815260006117696020830184611bbe565b600060208284031215611c0f57600080fd5b5035919050565b80356001600160a01b0381168114611c2d57600080fd5b919050565b60008060408385031215611c4557600080fd5b611c4e83611c16565b946020939093013593505050565b600080600060608486031215611c7157600080fd5b611c7a84611c16565b9250611c8860208501611c16565b9150604084013590509250925092565b634e487b7160e01b600052604160045260246000fd5b604051601f8201601f1916810167ffffffffffffffff81118282101715611cd757611cd7611c98565b604052919050565b600067ffffffffffffffff831115611cf957611cf9611c98565b611d0c601f8401601f1916602001611cae565b9050828152838383011115611d2057600080fd5b828260208301376000602084830101529392505050565b600082601f830112611d4857600080fd5b61176983833560208501611cdf565b60006020808385031215611d6a57600080fd5b823567ffffffffffffffff80821115611d8257600080fd5b818501915085601f830112611d9657600080fd5b813581811115611da857611da8611c98565b8060051b611db7858201611cae565b9182528381018501918581019089841115611dd157600080fd5b86860192505b83831015611e0d57823585811115611def5760008081fd5b611dfd8b89838a0101611d37565b8352509186019190860190611dd7565b9998505050505050505050565b600060208284031215611e2c57600080fd5b61176982611c16565b6020808252825182820181905260009190848201906040850190845b81811015611e765783516001600160a01b031683529284019291840191600101611e51565b50909695505050505050565b6001600160a01b038316815260406020820181905260009061121d90830184611bbe565b60008060408385031215611eb957600080fd5b611ec283611c16565b915060208301358015158114611ed757600080fd5b809150509250929050565b60008060408385031215611ef557600080fd5b823567ffffffffffffffff811115611f0c57600080fd5b611f1885828601611d37565b925050611f2760208401611c16565b90509250929050565b60008060008060808587031215611f4657600080fd5b611f4f85611c16565b9350611f5d60208601611c16565b925060408501359150606085013567ffffffffffffffff811115611f8057600080fd5b8501601f81018713611f9157600080fd5b611fa087823560208401611cdf565b91505092959194509250565b60008060408385031215611fbf57600080fd5b611fc883611c16565b9150611f2760208401611c16565b600181811c90821680611fea57607f821691505b60208210810361200a57634e487b7160e01b600052602260045260246000fd5b50919050565b6020808252602d908201527f4552433732313a2063616c6c6572206973206e6f7420746f6b656e206f776e6560408201526c1c881bdc88185c1c1c9bdd9959609a1b606082015260800190565b634e487b7160e01b600052601160045260246000fd5b808201808211156106155761061561205d565b634e487b7160e01b600052603260045260246000fd5b6000600182016120ae576120ae61205d565b5060010190565b818103818111156106155761061561205d565b634e487b7160e01b600052603160045260246000fd5b60208082526025908201527f4552433732313a207472616e736665722066726f6d20696e636f72726563742060408201526437bbb732b960d91b606082015260800190565b601f8211156107e957600081815260208120601f850160051c8101602086101561214a5750805b601f850160051c820191505b8181101561216957828155600101612156565b505050505050565b815167ffffffffffffffff81111561218b5761218b611c98565b61219f816121998454611fd6565b84612123565b602080601f8311600181146121d457600084156121bc5750858301515b600019600386901b1c1916600185901b178555612169565b600085815260208120601f198616915b82811015612203578886015182559484019460019091019084016121e4565b50858210156122215787850151600019600388901b60f8161c191681555b5050505050600190811b01905550565b60008351612243818460208801611b9a565b835190830190612257818360208801611b9a565b01949350505050565b60208082526032908201527f4552433732313a207472616e7366657220746f206e6f6e20455243373231526560408201527131b2b4bb32b91034b6b83632b6b2b73a32b960711b606082015260800190565b6001600160a01b03858116825284166020820152604081018390526080606082018190526000906122e590830184611bbe565b9695505050505050565b60006020828403121561230157600080fd5b815161176981611b6756fea2646970667358221220adbb54209861d06872ad7f36d8db8a99ddd32ccfedb62240b84d9c66bb77a41e64736f6c63430008110033",
  "linkReferences": {},
  "deployedLinkReferences": {}
}